:020000040800F2
:1000000000000524B11E00084D1A00084F1A000810
:10001000511A0008531A0008551A00080000000081
:10002000000000000000000000000000571A000857
:10003000591A0008000000005B1A00085D1A000849
:10004000011F0008011F0008011F0008011F000810
:10005000011F0008011F0008011F0008011F000800
:10006000011F0008011F0008011F0008011F0008F0
:10007000011F0008011F0008011F0008011F0008E0
:10008000011F0008011F0008011F0008011F0008D0
:10009000011F0008011F0008011F0008011F0008C0
:1000A000011F0008011F0008011F0008011F0008B0
:1000B000011F0008011F0008011F0008011F0008A0
:1000C000011F0008011F0008011F0008011F000890
:1000D000011F0008651A0008851A0008011F0008A2
:1000E000011F0008011F000800000000011F000898
:1000F000011F0008011F0008011F0008011F000860
:10010000011F0008011F0008011F0008011F00084F
:10011000011F0008011F0008A51A0008011F0008A0
:10012000011F0008011F0008011F0008011F00082F
:10013000011F0008011F0008011F0008011F00081F
:1001400000000000000000000000000000000000AF
:10015000011F0008011F0008011F0008011F0008FF
:10016000011F0008011F0008011F0008011F0008EF
:10017000011F0008011F0008011F00080000000007
:10018000011F0008011F0008011F0008011F0008CF
:10019000011F0008011F0008011F0008011F0008BF
:1001A000011F0008011F0008011F000800000000D7
:1001B000011F0008011F0008011F0008011F00089F
:1001C000011F0008011F00080000000000000000DF
:1001D0000000000000000000011F000800000000F7
:1001E000000000000000000000000000000000000F
:1001F0000000000000000000011F0008011F0008AF
:10020000011F0008011F000800000000011F000876
:10021000011F0008011F0008011F0008011F00083E
:10022000011F000800000000011F0008000000007E
:10023000011F0008011F000800000000011F000846
:10024000011F0008011F0008011F0008011F00080E
:10025000011F0008011F0008011F0008011F0008FE
:10026000011F0008011F0008011F0008011F0008EE
:10027000011F0008011F0008011F00080000000006
:10028000011F0008011F0008011F0008011F0008CE
:1002900000000000011F0008011F0008000000000E
:1002A00000000000011F0008011F0008011F0008D6
:1002B000011F0008011F0008011F0008011F00089E
:0C02C000011F0008011F0008011F0008BA
:1003000010B5054C237833B9044B13B10448AFF34F
:1003100000800123237010BDD012002400000000D3
:10032000D0EF000808B5034B1BB103490348AFF3F6
:10033000008008BD00000000D4120024D0EF0008A7
:1003400081F0004102E000BF83F0004330B54FEA86
:1003500041044FEA430594EA050F08BF90EA020FF3
:100360001FBF54EA000C55EA020C7FEA645C7FEA86
:10037000655C00F0E2804FEA5454D4EB5555B8BFA9
:100380006D420CDD2C4480EA020281EA030382EA1A
:10039000000083EA010180EA020281EA0303362DAC
:1003A00088BF30BD11F0004F4FEA01314FF4801C7F
:1003B0004CEA113102D0404261EB410113F0004F91
:1003C0004FEA03334CEA133302D0524263EB430348
:1003D00094EA050F00F0A780A4F10104D5F1200EE6
:1003E0000DDB02FA0EFC22FA05F2801841F1000141
:1003F00003FA0EF2801843FA05F359410EE0A5F115
:1004000020050EF1200E012A03FA0EFC28BF4CF045
:10041000020C43FA05F3C01851EBE37101F00045FB
:1004200007D54FF0000EDCF1000C7EEB00006EEB08
:100430000101B1F5801F1BD3B1F5001F0CD3490892
:100440005FEA30004FEA3C0C04F101044FEA4452E9
:1004500012F5800F80F09A80BCF1004F08BF5FEA70
:10046000500C50F1000041EB045141EA050130BD50
:100470005FEA4C0C404141EB0101013C28BFB1F562
:10048000801FE9D291F0000F04BF01460020B1FAAD
:1004900081F308BF2033A3F10B03B3F120020CDA80
:1004A0000C3208DD02F1140CC2F10C0201FA0CF05E
:1004B00021FA02F10CE002F11402D8BFC2F1200CC3
:1004C00001FA02F120FA0CFCDCBF41EA0C01904079
:1004D000E41AA2BF01EB0451294330BD6FEA0404C2
:1004E0001F3C1CDA0C340EDC04F11404C4F12002AD
:1004F00020FA04F001FA02F340EA030021FA04F3BF
:1005000045EA030130BDC4F10C04C4F1200220FA15
:1005100002F001FA04F340EA0300294630BD21FA53
:1005200004F0294630BD94F0000F83F4801306BF19
:1005300081F480110134013D4EE77FEA645C18BF0D
:100540007FEA655C29D094EA050F08BF90EA020FA4
:1005500005D054EA000C04BF1946104630BD91EA9C
:10056000030F1EBF0021002030BD5FEA545C05D19F
:100570004000494128BF41F0004130BD14F58004DE
:100580003CBF01F5801130BD01F0004545F0FE4152
:1005900041F470014FF0000030BD7FEA645C1ABF87
:1005A000194610467FEA655C1CBF0B46024650EABE
:1005B000013406BF52EA033591EA030F41F40021EA
:1005C00030BD00BF90F0000F04BF0021704730B570
:1005D0004FF4806404F132044FF000054FF0000145
:1005E00050E700BF90F0000F04BF0021704730B506
:1005F0004FF4806404F1320410F0004548BF4042DB
:100600004FF000013EE700BF42004FEAE2014FEA2F
:1006100031014FEA02701FBF12F07F4393F07F4F0A
:1006200081F06051704732F07F4208BF704793F00D
:100630007F4F04BF41F40021704730B54FF4607420
:1006400001F0004521F000411CE700BF50EA010223
:1006500008BF704730B54FF000050AE050EA0102CC
:1006600008BF704730B511F0004502D5404261EB3C
:1006700041014FF4806404F132045FEA915C3FF47D
:10068000D8AE4FF003025FEADC0C18BF03325FEA1A
:10069000DC0C18BF033202EBDC02C2F1200300FACB
:1006A00003FC20FA02F001FA03FE40EA0E0021FAF0
:1006B00002F11444BDE600BF53B94AB9002908BF8E
:1006C00000281CBF4FF0FF314FF0FF3000F074B92D
:1006D000ADF1080C6DE904CE00F006F8DDF804E099
:1006E000DDE9022304B070472DE9F047089D044678
:1006F0008E46002B4DD18A42944669D9B2FA82F2D5
:1007000052B101FA02F3C2F1200120FA01F10CFA10
:1007100002FC41EA030E94404FEA1C48210CBEFB48
:10072000F8F61FFA8CF708FB16E341EA034306FBD1
:1007300007F199420AD91CEB030306F1FF3080F060
:100740001F81994240F21C81023E63445B1AA4B2AD
:10075000B3FBF8F008FB103344EA034400FB07F74F
:10076000A7420AD91CEB040400F1FF3380F00A8190
:10077000A74240F207816444023840EA0640E41B85
:1007800000261DB1D4400023C5E900433146BDE831
:10079000F0878B4209D9002D00F0EF800026C5E9D3
:1007A000000130463146BDE8F087B3FA83F6002EEB
:1007B0004AD18B4202D3824200F2F980841A61EB63
:1007C000030301209E46002DE0D0C5E9004EDDE781
:1007D00002B9FFDEB2FA82F2002A40F09280A1EB69
:1007E0000C014FEA1C471FFA8CFE0126200CB1FBBE
:1007F000F7F307FB131140EA01410EFB03F08842B7
:1008000008D91CEB010103F1FF3802D2884200F243
:10081000CB804346091AA4B2B1FBF7F007FB1011D5
:1008200044EA01440EFB00FEA64508D91CEB040473
:1008300000F1FF3102D2A64500F2BB800846A4EBCE
:100840000E0440EA03409CE7C6F12007B34022FAB9
:1008500007FC4CEA030C20FA07F401FA06F31C43E8
:10086000F9404FEA1C4900FA06F3B1FBF9F8200CF5
:100870001FFA8CFE09FB181140EA014108FB0EF03B
:10088000884202FA06F20BD91CEB010108F1FF3A8B
:1008900080F08880884240F28580A8F10208614497
:1008A000091AA4B2B1FBF9F009FB101144EA0141A5
:1008B00000FB0EFE8E4508D91CEB010100F1FF3450
:1008C0006CD28E456AD90238614440EA0840A0FBE8
:1008D0000294A1EB0E01A142C846A64656D353D0BE
:1008E0005DB1B3EB080261EB0E0101FA07F722FAE2
:1008F00006F3F1401F43C5E9007100263146BDE80B
:10090000F087C2F12003D8400CFA02FC21FA03F36D
:10091000914001434FEA1C471FFA8CFEB3FBF7F0EE
:1009200007FB10360B0C43EA064300FB0EF69E4213
:1009300004FA02F408D91CEB030300F1FF382FD2AC
:100940009E422DD9023863449B1B89B2B3FBF7F654
:1009500007FB163341EA034106FB0EF38B4208D92D
:100960001CEB010106F1FF3816D28B4214D9023E6E
:100970006144C91A46EA004638E72E46284605E78C
:100980000646E3E61846F8E64B45A9D2B9EB02085D
:1009900064EB0C0E0138A3E74646EAE7204694E7ED
:1009A0004046D1E7D0467BE7023B614432E7304620
:1009B00009E76444023842E7704700BF844641EAD1
:1009C000000313F003036DD1403A41D351F8043BC7
:1009D00040F8043B51F8043B40F8043B51F8043B19
:1009E00040F8043B51F8043B40F8043B51F8043B09
:1009F00040F8043B51F8043B40F8043B51F8043BF9
:100A000040F8043B51F8043B40F8043B51F8043BE8
:100A100040F8043B51F8043B40F8043B51F8043BD8
:100A200040F8043B51F8043B40F8043B51F8043BC8
:100A300040F8043B51F8043B40F8043B51F8043BB8
:100A400040F8043B51F8043B40F8043B403ABDD227
:100A5000303211D351F8043B40F8043B51F8043BC9
:100A600040F8043B51F8043B40F8043B51F8043B88
:100A700040F8043B103AEDD20C3205D351F8043B58
:100A800040F8043B043AF9D2043208D0D2071CBF24
:100A900011F8013B00F8013B01D30B88038060464D
:100AA000704700BF082A13D38B078DD010F00303C3
:100AB0008AD0C3F10403D21ADB071CBF11F8013B33
:100AC00000F8013B80D331F8023B20F8023B7BE782
:100AD000043AD9D3013A11F8013B00F8013BF9D2AD
:100AE0000B7803704B7843708B7883706046704747
:100AF00000000000000000000000000000000000F6
:100B000090F800F06DE9024520F007016FF0000C4D
:100B100010F0070491F820F040F049804FF00004F5
:100B20006FF00700D1E9002391F840F000F10800D0
:100B300082FA4CF2A4FA8CF283FA4CF3A2FA8CF308
:100B40004BBBD1E9022382FA4CF200F10800A4FA6F
:100B50008CF283FA4CF3A2FA8CF3E3B9D1E90423C3
:100B600082FA4CF200F10800A4FA8CF283FA4CF3FA
:100B7000A2FA8CF37BB9D1E9062301F1200182FAB4
:100B80004CF200F10800A4FA8CF283FA4CF3A2FABA
:100B90008CF3002BC6D0002A04BF04301A4612BAC8
:100BA000B2FA82F2FDE8024500EBD2007047D1E9CB
:100BB000002304F00305C4F100004FEAC50514F05A
:100BC000040F91F840F00CFA05F562EA05021CBF2B
:100BD00063EA050362464FF00004A9E70000000045
:100BE00001F0FF01102A2BDB10F0070F08D010F8DE
:100BF000013B013A8B422DD010F0070F42B3F6D1E2
:100C0000F0B441EA012141EA014122F007047FF0FA
:100C100000070023F0E80256083C85EA010586EA51
:100C2000010685FA47F5A3FA87F586FA47F6A5FA8D
:100C300087F68EB9EED1F0BC01F0FF0102F0070299
:100C400032B110F8013B013A83EA010313B1F8D144
:100C50000020704701387047002D06BF3546033825
:100C6000073815F0010F07D1013015F4807F02BF5E
:100C7000013015F4C03F0130F0BC0138704700BFAF
:100C800070B54FF0FF0C4CF4E06C1CEA11541DBF22
:100C90001CEA135594EA0C0F95EA0C0F00F0DEF8ED
:100CA0002C4481EA030621EA4C5123EA4C5350EAD2
:100CB000013518BF52EA033541F4801143F4801323
:100CC00038D0A0FB02CE4FF00005E1FB02E506F0B4
:100CD0000042E0FB03E54FF00006E1FB03569CF009
:100CE000000F18BF4EF0010EA4F1FF04B6F5007F0F
:100CF00064F5407404D25FEA4E0E6D4146EB060681
:100D000042EAC62141EA55514FEAC52040EA5E5009
:100D10004FEACE2EB4F1FD0C88BFBCF5E06F1ED8B3
:100D2000BEF1004F08BF5FEA500E50F1000041EBEA
:100D3000045170BD06F0004646EA010140EA020097
:100D400081EA0301B4EB5C04C2BFD4EB0C0541EAB9
:100D5000045170BD41F480114FF0000E013C00F3CE
:100D6000AB8014F1360FDEBF002001F0004170BDF2
:100D7000C4F10004203C35DA0C341BDC04F114040B
:100D8000C4F1200500FA05F320FA04F001FA05F297
:100D900040EA020001F0004221F0004110EBD37064
:100DA00021FA04F642EB06015EEA430E08BF20EA90
:100DB000D37070BDC4F10C04C4F1200500FA04F333
:100DC00020FA05F001FA04F240EA020001F00041C5
:100DD00010EBD37041F100015EEA430E08BF20EA38
:100DE000D37070BDC4F1200500FA05F24EEA020E80
:100DF00020FA04F301FA05F243EA020321FA04F0AF
:100E000001F0004121FA04F220EA020000EBD37065
:100E10005EEA430E08BF20EAD37070BD94F0000F65
:100E20000FD101F00046400041EB010111F4801F99
:100E300008BF013CF7D041EA060195F0000F18BF4A
:100E4000704703F00046520043EB030313F4801F86
:100E500008BF013DF7D043EA0603704794EA0C0F40
:100E60000CEA135518BF95EA0C0F0CD050EA410656
:100E700018BF52EA4306D1D181EA030101F00041D3
:100E80004FF0000070BD50EA410606BF10461946FB
:100E900052EA430619D094EA0C0F02D150EA013607
:100EA00013D195EA0C0F05D152EA03361CBF104648
:100EB00019460AD181EA030101F0004141F0FE41E7
:100EC00041F470014FF0000070BD41F0FE4141F46B
:100ED000780170BD70B54FF0FF0C4CF4E06C1CEA6B
:100EE00011541DBF1CEA135594EA0C0F95EA0C0F20
:100EF00000F0A7F8A4EB050481EA030E52EA0335DB
:100F00004FEA013100F088804FEA03334FF08055FB
:100F100045EA131343EA12634FEA022245EA111528
:100F200045EA10654FEA00260EF000419D4208BFD9
:100F3000964244F1FD0404F5407402D25B084FEA86
:100F40003202B61A65EB03055B084FEA32024FF432
:100F500080104FF4002CB6EB020E75EB030E22BF8F
:100F6000B61A754640EA0C005B084FEA3202B6EB4F
:100F7000020E75EB030E22BFB61A754640EA5C00FE
:100F80005B084FEA3202B6EB020E75EB030E22BF8E
:100F9000B61A754640EA9C005B084FEA3202B6EB8F
:100FA000020E75EB030E22BFB61A754640EADC004E
:100FB00055EA060E18D04FEA051545EA16754FEAB0
:100FC00006164FEAC30343EA52734FEAC2025FEACE
:100FD0001C1CC0D111F4801F0BD141EA00014FF05D
:100FE00000004FF0004CB6E711F4801F04BF01432E
:100FF0000020B4F1FD0C88BFBCF5E06F3FF6AFAE4A
:10100000B5EB030C04BFB6EB020C5FEA500C50F1D9
:10101000000041EB045170BD0EF0004E4EEA11315C
:1010200014EB5C04C2BFD4EB0C0541EA045170BD63
:1010300041F480114FF0000E013C90E645EA060EA7
:101040008DE60CEA135594EA0C0F08BF95EA0C0FD5
:101050003FF43BAF94EA0C0F0AD150EA01347FF41D
:1010600034AF95EA0C0F7FF425AF104619462CE7F4
:1010700095EA0C0F06D152EA03353FF4FDAE104657
:10108000194622E750EA410618BF52EA43067FF4A8
:10109000C5AE50EA41047FF40DAF52EA43057FF438
:1010A000EBAE12E74FF0FF3C06E000BF4FF0010C43
:1010B00002E000BF4FF0010C4DF804CD4FEA410CA7
:1010C0007FEA6C5C4FEA430C18BF7FEA6C5C1BD074
:1010D00001B050EA410C0CBF52EA430C91EA030FF5
:1010E00002BF90EA020F0020704710F1000F91EA52
:1010F000030F58BF994208BF90422CBFD8176FEA20
:10110000E37040F0010070474FEA410C7FEA6C5CED
:1011100002D150EA013C07D14FEA430C7FEA6C5CF4
:10112000D6D152EA033CD3D05DF8040B704700BF20
:101130008446104662468C461946634600E000BF6E
:1011400001B5FFF7B7FF002848BF10F1000F01BD40
:101150004DF808EDFFF7F4FF0CBF012000205DF80B
:1011600008FB00BF4DF808EDFFF7EAFF34BF012090
:1011700000205DF808FB00BF4DF808EDFFF7E0FF29
:1011800094BF012000205DF808FB00BF4DF808ED7A
:10119000FFF7CEFF94BF012000205DF808FB00BFE1
:1011A0004DF808EDFFF7C4FF34BF012000205DF8C3
:1011B00008FB00BF4FEA410C7FEA6C5C02D150EAA9
:1011C000013C0AD14FEA430C7FEA6C5C02D152EA3F
:1011D000033C02D14FF0000070474FF00100704710
:1011E0004FEA410212F5001215D211D56FF478734F
:1011F000B3EB625212D94FEAC12343F0004343EAF2
:10120000505311F0004F23FA02F018BF40427047CC
:101210004FF00000704750EA013005D111F0004056
:1012200008BF6FF0004070474FF00000704700BFEC
:1012300008B505F0A9F808BD00B583B000230193F7
:10124000052300930123034A05F0C4FC03B05DF8B5
:1012500004FB00BF4008002408B5034618B1184637
:1012600005F0A4F908BD024B024A1A60F7E700BF77
:10127000400800240001C0A108B5034618B1184673
:1012800005F020FB08BD024B024A1A60F7E700BFD9
:10129000400800240001C0A12DE9F04106460D469A
:1012A00005F072FE002800F0918080462A46012158
:1012B000474804F09FFF074600287BD0454A136843
:1012C00043F080431360424B1B689360D360424AF3
:1012D000116841F08041116003F180019160D1609B
:1012E0003E4A116841F08041116003F5025191605E
:1012F000D1603B4A116841F08041116003F506510D
:101300009160D160374A116841F08041116003F566
:1013100083419160D160344A116841F0804111608D
:1013200003F584419160D160304A116841F08041F9
:10133000116003F588419160D1602D4A116841F038
:101340008041116044F2104119449160D1602A46F5
:101350000121284804F0A6FF0446002830D0254B80
:101360001B6803F1FC01244A9160D16003F580728F
:1013700022498A60CA6022498A60CA6021498B601A
:10138000CB6021498B60CB6020498A60CA60204ACB
:101390009360D36003F180011E4A9160D1601E4AC0
:1013A0009360D3603C40E4B2304605F089FF2040B2
:1013B000BDE8F08112223021404605F0F1F8C6E781
:1013C00013223021404605F0EBF8EBE70020EFE771
:1013D00088130024AC0400240C0600249805002483
:1013E000F806002484060024E40700247007002483
:1013F0002005002484130024A8080024F4040024F9
:101400006C050024E005002458060024CC060024C6
:1014100044070024B8070024300800242DE9F041D7
:101420008EB00746884616460021FFF705FF0546A1
:1014300010F0FF0F02D00EB0BDE8F081684600F05A
:1014400033F820B1B8F1000F10D000240AE038685A
:10145000FFF7EEFEEFE758F82420214603A804F03A
:10146000B5FE0134BDF80E30A342F4DC66B10024B1
:1014700006E056F82420214601A804F0A7FE013416
:10148000BDF80630A342F4DC69463868FFF704FF74
:1014900008B12846CFE73868FFF7CAFE0546F8E7E7
:1014A00008B506F037F808BDB0B100B585B086467E
:1014B0000A4B02AA03F1200103C982E80300EC46AB
:1014C000283393E803008CE803006146704604F07B
:1014D00041FF05B05DF804FB0020704700F00008F4
:1014E00010B582B00F4B0193002201A90E48FFF7FF
:1014F00095FF10F0FF010ED10B4C00212068FFF783
:10150000ABFE0A4B186000212068FFF7B5FE084BC0
:10151000186002B010BD020A064807F07DFE00F018
:1015200011FAE9E78C130024281500242015002463
:10153000241500241035010808B50D4B1B685860B0
:101540000C4A1268516019460B4B1868FFF7A8FF48
:10155000012800D108BD084B1868FFF769FE020A90
:10156000C1B2064807F058FE00F0ECF9F2E700BF00
:101570002015002424150024281500243C350108DA
:10158000844690ED007A0123002000E001338B4275
:101590000CD20CEB8302D2ED007AF4EEC77AF1EEB6
:1015A00010FAF3DD1846B0EE677AEFE770470000F7
:1015B000F8B5254807F092FE0A21244807F02CFED2
:1015C00000252E462EE0E918214A02EB810211681F
:1015D000204A02EB830211600133002BF3D01E4935
:1015E0001C48FFF7A9FF00240BE01B4B03EB84030F
:1015F0001868FFF709F802460B46184807F00CFE7A
:101600000134032CF1D904211348FFF7B9FF044634
:10161000134B5F5D02463946124807F0FDFDA742B5
:1016200004D00135092D04D80023D6E70136F6B2DF
:10163000F7E706EB860671000B4807F0EDFD024860
:1016400007F04CFEF8BD00BF68350108A43501085D
:101650006C3601080C15002410150024E035010833
:1016600094360108E83501080036010870B50546D2
:1016700000239BB1144C21461448FFF75DFF042161
:101680002046FFF77DFF0646114807F0C5FD002400
:101690006CB131460F4807F0BFFD70BD05EB83020A
:1016A00011680A4A02EB830211600133E1E705EB9E
:1016B00084031868FEF7A8FF02460B46064807F0A9
:1016C000ABFD0134E4E700BF101500240C15002425
:1016D0003C360108543601084C36010808B50C4860
:1016E00001F0B2F80B4802F0C3FFFFF7F9FEFFF775
:1016F0005FFF04220849094804F072FC01220849EE
:10170000084804F06DFC4FF47A7000F063FC08BDEB
:101710005C1500248415002434150024D015002401
:1017200030150024641600240246002000E0013039
:10173000135C002BFBD170470268044B9A4200D027
:101740007047034A136801331360F9E70010004043
:101750002C15002410B582B004460268124B9A4240
:1017600005D02268114B9A4219D002B010BD4FF437
:1017700000510F4801F0ACF900230AE0C3F1030265
:101780000C49895C03F108026A4402F8041C013325
:10179000DBB2032BF2D901A8FFF768FFE1E70648A7
:1017A00000F01CF8E1E700BF0010014000440040D9
:1017B00000080258341500243015002400B583B009
:1017C00001904FF0FF33012201A9034804F06AFAA7
:1017D000019803B05DF804FBD015002410B5044651
:1017E000FFF7A2FF4FF0FF3382B22146014804F019
:1017F00059FA10BDD015002408B50848084B0360FD
:10180000002303714371436183610123036200F08C
:101810005FFC00B908BD00F095F8FBE7381500241F
:10182000004C025802680A4B9A4200D0704782B0BE
:10183000A3F50063D3F8E02042F40022C3F8E020CF
:10184000D3F8E03003F400230193019B02B070470A
:10185000004C025808B50A480A4B03600023436055
:101860008360C3604FF48032026143618361C3616E
:1018700000F082FF00B908BD00F064F8FBE700BF8C
:101880005C1500240068005802680A4B9A4200D098
:10189000704782B003F5EE33D3F8F42042F0806253
:1018A000C3F8F420D3F8F43003F080630193019B74
:1018B00002B070470068005830B589B00024039426
:1018C00004940594069407941C4BD3F8E02042F04E
:1018D0000402C3F8E020D3F8E02002F004020092F2
:1018E000009AD3F8E02042F08002C3F8E020D3F859
:1018F000E02002F080020192019AD3F8E02042F049
:101900000102C3F8E020D3F8E03003F001030293B2
:10191000029B0B4D22464FF40051284601F0D2F8AD
:101920004FF400530393012304930594069403A9F1
:10193000284600F0BDFF09B030BD00BF004402588A
:101940000008025872B6FEE700B59DB04C22002197
:1019500009A807F003FC2022002101A807F0FEFBE4
:10196000022001F0BFF800230093214B9A6922F472
:1019700040429A619B6903F440430093009B1C4BD7
:101980009B6913F4005FFAD00223099301210C91A3
:1019900040220D92129300221392042014902220D0
:1019A00015901691179318930C2319931A924FF4CC
:1019B00040631B9309A801F0BFF8A8B93F23019326
:1019C00003210291002303930823049340230593EA
:1019D00006934FF480620792089301A801F09CFCE3
:1019E00020B91DB05DF804FBFFF7ACFFFFF7AAFFBD
:1019F0000048025808B500F0ADFAFFF7A5FFFFF761
:101A00005BFFFFF727FF00F009F900F055F9FFF73A
:101A1000F3FE00F085F9FFF761FE024807F0FCFBDA
:101A2000FBE700BFA036010882B0074BD3F8F420D3
:101A300042F00202C3F8F420D3F8F43003F00203BA
:101A40000193019B02B0704700440258FEE7FEE795
:101A5000FEE7FEE7FEE770477047704708B500F005
:101A6000A7FA08BD10B5054C204603F08BF80422F8
:101A70000349204604F0B4FA10BD00BFD01500247D
:101A80003415002410B5054C204603F07BF80122E4
:101A90000349204604F0A4FA10BD00BF64160024D8
:101AA0003015002408B5024802F036FE08BD00BF1C
:101AB000841500240120704708B507F075F8162337
:101AC00003604FF0FF3008BD08B54FF0FF31FFF75E
:101AD000F3FFFEE770B50C461646002506E0AFF3AF
:101AE0000080214601F8010B01350C46B542F6DBBA
:101AF000304670BD70B50C461646002504E014F85B
:101B0000010BFFF75BFE0135B542F8DB304670BDD7
:101B10004FF0FF3070474FF400534B600020704788
:101B2000012070470020704710B503460C4A0D494C
:101B30000D48006840B10C4800680344521A9342B3
:101B400006D8094A136010BD0748084C0460F2E744
:101B500007F02AF80C2303604FF0FF30F3E700BFD3
:101B6000000005240004000080150024481700240C
:101B7000224AD2F8883043F47003C2F88830204BF0
:101B80001B6803F00F03062B06D81D4A136823F0C9
:101B90000F0343F0070313601A4B1A6842F0010267
:101BA0001A6000221A611968174A0A401A60144B19
:101BB0001B6813F0080F06D0114A136823F00F03B7
:101BC00043F0070313600F4B00229A61DA611A6237
:101BD0000E4999620E49D9620E4919635A63996395
:101BE000DA6319645A64196821F4802119601A664D
:101BF000094B43F2D2021A60704700BF00ED00E0CB
:101C000000200052004402587FEDF6EA0002020272
:101C10000000FF01800201010040005200B585B0C4
:101C200000230193029303930F48104A02604FF47C
:101C300089724260836040F2E733C360802383612E
:101C400002F0C8FE50B900230193039301A906488E
:101C500002F0F0FE28B905B05DF804FBFFF772FE54
:101C6000F1E7FFF76FFEF6E784150024001000404F
:101C700002680F4B9A4200D0704700B583B00D4BFD
:101C8000D3F8E82042F01002C3F8E820D3F8E83097
:101C900003F010030193019B00220121362000F084
:101CA000BFF9362000F0F2F903B05DF804FB00BF85
:101CB000001000400044025808B51748174B036055
:101CC0004FF4E133436000238360C36003610C225F
:101CD00042618361C36103624362836204F0AFF8CF
:101CE00070B900210C4804F0E9F960B900210A48F4
:101CF00004F009FA50B9084804F0C1F948B908BD20
:101D0000FFF720FEEDE7FFF71DFEEFE7FFF71AFEF6
:101D1000F1E7FFF717FEF2E7D015002400100140AD
:101D200008B51748174B03604FF4E13343600023B5
:101D30008360C36003610C2242618361C3610362FB
:101D40004362836204F07BF870B900210C4804F010
:101D5000B5F960B900210A4804F0D5F950B908482E
:101D600004F08DF948B908BDFFF7ECFDEDE7FFF78A
:101D7000E9FDEFE7FFF7E6FDF1E7FFF7E3FDF2E747
:101D8000641600240044004030B5B9B00446002178
:101D900033913491359136913791B82204A807F0E8
:101DA000DDF923683E4A934204D03E4A93423CD038
:101DB00039B030BD01220023CDE9042304A801F08D
:101DC00047FD78BB384BD3F8F02042F01002C3F83F
:101DD000F020D3F8F02002F010020092009AD3F81D
:101DE000E02042F00102C3F8E020D3F8E03003F035
:101DF00001030193019B4FF4C06333930223349397
:101E00000024359436940723379333A9274800F0EC
:101E10004FFD22462146252000F002F9252000F042
:101E200035F9C5E7FFF78EFDCCE702220023CDE9A7
:101E3000042304A801F00CFD70BB1B4BD3F8E82071
:101E400042F40032C3F8E820D3F8E82002F400326C
:101E50000292029AD3F8E02042F00102C3F8E02097
:101E6000D3F8E03003F001030393039B0C23339377
:101E7000022434940025359536940723379333A9EB
:101E80000A4800F015FD2A462146262000F0C8F831
:101E9000262000F0FBF88BE7FFF754FDCDE700BFED
:101EA0000010014000440040004402580000025865
:101EB000DFF834D0FFF75CFE0C480D490D4A0023D3
:101EC00002E0D458C4500433C4188C42F9D30A4AEF
:101ED0000A4C002301E013600432A242FBD306F057
:101EE00069FEFFF787FD704700000524000000240D
:101EF000D0120024043B0108D0120024441700240F
:101F0000FEE70000104B1B780BB90120704710B59D
:101F100004464FF47A70B0FBF3F30C4A1068B0FB40
:101F2000F3F000F0C1F868B90F2C01D901200AE0E4
:101F3000002221464FF0FF3000F072F8044B1C6085
:101F4000002000E0012010BD180900241009002421
:101F50001C09002410B5032000F050F801F0E2F84D
:101F60000F498B69C3F303230E4AD35C03F01F03AD
:101F7000D8408B6903F00F03D35C03F01F0320FAF2
:101F800003F3094A1360094B18600F20FFF7BAFFEB
:101F900010B10124204610BD0446FFF745FDF9E7C6
:101FA00000440258A4360108140900241009002432
:101FB000034B1B78034A11680B441360704700BF42
:101FC00018090024F8160024014B1868704700BF58
:101FD000F816002438B50446FFF7F6FF0546B4F1BD
:101FE000FF3F02D0044B1B781C44FFF7EDFF401B62
:101FF000A042FAD338BD00BF180900240649CB68B7
:1020000023F4E0631B041B0C000200F4E0600343B4
:10201000024A1A43CA60704700ED00E00000FA056A
:1020200000B5174BDB68C3F30223C3F1070CBCF107
:10203000040F28BF4FF0040C03F1040EBEF1060F8D
:1020400014D9033B4FF0FF3E0EFA0CFC21EA0C01C1
:1020500099400EFA03F322EA03031943002807DB31
:102060000901C9B2074B19545DF804FB0023E9E7E5
:1020700000F00F000901C9B2034B1954F4E700BF87
:1020800000ED00E000E400E014ED00E0002807DBD4
:1020900000F01F02400901239340024A42F8203019
:1020A000704700BF00E100E00138B0F1807F0BD243
:1020B0004FF0E0235861054AF02182F823100020F8
:1020C000986107221A6170470120704700ED00E017
:1020D000002838D010B50446437F1BB30223637732
:1020E00023791BBB2368194A5A612268936823F03D
:1020F00018039360637913BB23684FF0FF321A61B2
:102100002268936823F0600361690B43936022683F
:10211000936823F08003A1690B43936001236377E5
:10212000002010BD0377FFF77DFBD7E7E268A168C9
:10213000204600F00DF80028DCD00120F1E72368EC
:1021400022691A61DCE70120704700BFB71DC10496
:1021500011F0010F30D010B41F231C46013B34B1E5
:1021600003F01F0C21FA0CFC1CF0010FF5D0182A0B
:1021700024D8DFE802F00F232323232323231D2366
:1021800023232323232319232323232323230D0062
:10219000062B17D80368596101688B6823F0180370
:1021A0001A438A6000200AE0072BF3D9012006E0D9
:1021B0000F2BEFD9012002E00120704701205DF8CC
:1021C000044B70470120FAE770B50446FFF7FCFEA8
:1021D000002C00F09181054694F83530DBB2022BDB
:1021E00006D080236365002384F83430012070BD5D
:1021F00023688C498C4A934218BF8B4230D01832E6
:1022000093422DD0183293422AD01832934227D0CD
:102210001832934224D01832934221D0183293427C
:102220001ED002F5567293421AD01832934217D03C
:102230001832934214D01832934211D0183293427C
:102240000ED0183293420BD01832934208D0183275
:10225000934205D01A6822F00E021A60266809E03F
:102260001A6822F01E021A602268536923F0800364
:102270005361266823686B496B4A934218BF8B42AF
:1022800042D0183293423FD0183293423CD0183299
:10229000934239D01832934236D01832934233D019
:1022A0001832934230D002F5567293422CD0183235
:1022B000934229D01832934226D01832934223D029
:1022C0001832934220D0183293421DD018329342D4
:1022D0001AD01832934217D0544A934214D0143271
:1022E000934211D0143293420ED0143293420BD049
:1022F0001432934208D01432934205D014329342E0
:1023000002D01432934204D1226E136823F48073F6
:10231000136023684349444A934218BF8B422FD02D
:10232000183293422CD01832934229D0183293425B
:1023300026D01832934223D01832934220D018323C
:1023400093421DD002F55672934219D0183293422F
:1023500016D01832934213D01832934210D018324C
:1023600093420DD0183293420AD01832934207D0CC
:102370001832934204D01A6822F001021A6003E076
:102380001A6822F001021A60336813F0010F0ED0B0
:10239000FFF71AFE431B052BF6D9202363650323A1
:1023A00084F83530002384F8343001201FE7236897
:1023B0001C491D4A934218BF8B4239D018329342B0
:1023C00036D01832934233D01832934230D018327C
:1023D00093422DD0183293422AD01832934227D0FC
:1023E00002F55672934223D01832934220D018320D
:1023F00093421DD0183293421AD01832934217D00C
:102400001832934214D01832934211D018329342AA
:102410000ED0A16DE36D03F01F02012393404B60CA
:102420000DE000BF1000024028000240085402588E
:10243000A16DE36D03F01F023F2393408B6023687F
:102440002E492F4A934218BF8B4242D018329342F2
:102450003FD0183293423CD01832934239D01832D0
:10246000934236D01832934233D01832934230D050
:1024700002F5567293422CD01832934229D018326A
:10248000934226D01832934223D01832934220D060
:10249000183293421DD0183293421AD01832934208
:1024A00017D0184A934214D01432934211D01432E8
:1024B00093420ED0143293420BD01432934208D080
:1024C0001432934205D01432934202D01432934214
:1024D0000BD1636EA26E5A60E36E33B11A6822F4B8
:1024E00080721A60236F626F5A60012384F835305E
:1024F000002084F834007AE6012078E610000240DB
:102500002800024008540258002800F0298108B52C
:10251000024690F83530DBB2022B03D080234365AE
:10252000012008BD0368904890498B4218BF834240
:102530000CBF0121002166D03030834263D01830B7
:10254000834260D0183083425DD0183083425AD025
:102550001830834257D01830834254D000F556705B
:10256000834250D0183083424DD0183083424AD035
:102570001830834247D01830834244D01830834209
:1025800041D0183083423ED0183083423BD0196886
:1025900021F00E0119601368A0F5956073498B4214
:1025A00018BF83426AD072498B4267D018318B4280
:1025B00064D018318B4261D018318B425ED0183113
:1025C0008B425BD018318B4258D001F556718B424B
:1025D00054D018318B4251D018318B424ED0183123
:1025E0008B424BD018318B4248D018318B4245D0AA
:1025F00018318B4242D018318B423FD0196821F0FC
:10260000010119603EE0042082F8350081BB584A80
:1026100093422DD0183293422AD01832934227D0B9
:102620001832934224D01832934221D01832934268
:102630001ED002F5567293421AD01832934217D028
:102640001832934214D01832934211D01832934268
:102650000ED0183293420BD01832934208D0183261
:10266000934205D01A6822F001021A60002058E750
:102670001A6822F001021A60002052E7196821F05E
:10268000010119601368384838498B4218BF8342EA
:1026900042D018318B423FD018318B423CD0183198
:1026A0008B4239D018318B4236D018318B4233D01F
:1026B00018318B4230D001F556718B422CD0183135
:1026C0008B4229D018318B4226D018318B4223D02F
:1026D00018318B4220D018318B421DD018318B42DB
:1026E0001AD018318B4217D022498B4214D01431A2
:1026F0008B4211D014318B420ED014318B420BD04F
:1027000014318B4208D014318B4205D014318B42E6
:1027100002D014318B4217D1116E0B6823F48073F1
:102720000B60906DD36D03F01F0101238B4043605C
:10273000536E916E5960D36E33B1196821F4807174
:102740001960136F516F5960012382F835300023EF
:1027500082F83430136D2BB1104698470020E0E624
:10276000012070470020DCE61000024028000240F3
:10277000400002400854025800285AD010B50446C0
:1027800090F82130002B42D0022384F821302368B6
:102790001A69002A4FD09A68002A4ED06268002A2F
:1027A00038D11A6822F400121A60A368B3F5801FAA
:1027B00039D02268136823F48013136022681368E9
:1027C00023F0FE43616943EA0163136022681368E2
:1027D00023F4702321690B4313602268136823F4E8
:1027E0007063E1680B431360226853699BB2A1696F
:1027F00043EA0143536122685169124B0B40E1697E
:102800000B435361012384F82130002014E0FFF7CB
:102810003BF8B9E7A268B2F5801F10D11A6842F4FC
:1028200000121A60C1E72268136843F48013136032
:10283000C4E701207047012010BD0120FCE7012002
:10284000FAE700BF0000FFFF80B338B5044690F8F8
:102850002130DBB2012B01D0022038BD022380F8E9
:1028600021300268136843F001031360FFF7ACFBEB
:10287000054623681A6A12F4004F06D1FFF7A4FB3D
:10288000401B0128F5D90320E7E71A6812F4706F9E
:1028900004D0012384F821300020DEE71A6842F0DA
:1028A00010021A600520FFF795FBF2E70120704740
:1028B000F0B583B000236BE085685E000324B4406C
:1028C00025EA0405CC68B4402C438460446824EABB
:1028D0000C0C4C68C4F300149C4044EA0C044460A3
:1028E00068E0DD08083550F8256003F007044FEA7A
:1028F000840C0F2404FA0CF426EA040E0C6904FA82
:102900000CF444EA0E0440F825406BE0092400E092
:10291000002404FA0EF42C430CF1020C664D45F829
:102920002C404FF0B0442568D44325EA02064F6896
:1029300017F4801F01D042EA05064FF0B0452E6023
:102940006D6804EA05064F6817F4001F01D042EADB
:1029500005064FF0B0456E60D5F8845004EA0506D0
:102960004F6817F4003F01D042EA05064FF0B0452A
:10297000C5F88460D5F880502C404E6816F4803F2E
:1029800001D042EA05044FF0B042C2F88040013362
:102990000A6832FA03F400F08C804FF0010C0CFA54
:1029A00003FC1CEA0202F2D04C6804F00304013C70
:1029B000012C81D94C6804F00304032C0CD0C468AA
:1029C0005D004FF0030C0CFA05FC24EA0C0C8C683B
:1029D000AC4044EA0C04C4604C6804F00304022CCC
:1029E0003FF47FAF04684FEA430E4FF0030C0CFA3C
:1029F0000EFC24EA0C0C4C6804F0030404FA0EF4F8
:102A000044EA0C0404604C6814F4403FBFD02B4CE3
:102A1000D4F8F45045F00205C4F8F450D4F8F4406A
:102A200004F002040194019C4FEA930C0CF102059E
:102A3000214C54F8255003F003044FEA840E0F2470
:102A400004FA0EF425EA04051D4CA0423FF460AFE1
:102A500004F58064A0421ED004F58064A0421CD01E
:102A600004F58064A0421AD004F58064A04218D016
:102A700004F58064A04216D004F58064A04214D00E
:102A800004F58064A04212D004F50064A0423FF433
:102A90003DAF0A243DE701243BE7022439E7032444
:102AA00037E7042435E7052433E7062431E7072414
:102AB0002FE703B0F0BD00BF0004005800440258E7
:102AC000000002580AB181617047090481617047B2
:102AD000436901EA030221EA030141EA02418161FB
:102AE00070470000134BDB6813F0040F07D1114B44
:102AF000DB6803F0070383421AD00120704710B54A
:102B00000C4AD36823F007031843D060FFF75CFA40
:102B10000446084B5B6813F4005F07D1FFF754FAD3
:102B2000001BB0F57A7FF4D9012000E0002010BD31
:102B30000020704700480258002800F0D78238B5BE
:102B40000446036813F0010F25D0A04A136903F06F
:102B50003803926A102B15D0182B0FD06368B3F589
:102B6000803F3FD0002B53D1984B1A6822F480321B
:102B70001A601A6822F480221A6038E002F0030218
:102B8000022AEBD1914B1B6813F4003F03D063681A
:102B9000002B00F0AD82236813F0020F00F0888054
:102BA0008A4A1369926A13F038035AD0182B55D009
:102BB000E368002B00F0A98084490A6822F019021A
:102BC00013430B60FFF700FA0546804B1B6813F0B8
:102BD000040F40F09180FFF7F7F9401B0228F4D969
:102BE00003208CE2794A136843F4803313606368EE
:102BF0002BB3FFF7E9F90546744B1B6813F4003F4C
:102C0000C9D1FFF7E1F9401B6428F5D9032076E22A
:102C1000B3F5A02F09D06D4B1A6822F480321A60E8
:102C20001A6822F480221A60E1E7684B1A6842F4BD
:102C300080221A601A6842F480321A60D7E7FFF7E0
:102C4000C3F90546614B1B6813F4003FA3D0FFF79F
:102C5000BBF9401B6428F5D9032050E212F0030FA2
:102C6000A6D15A4B1B6813F0040F03D0E368002B66
:102C700000F04082554A136823F01903E1680B43C2
:102C80001360FFF7A1F90546504B1B6813F0040FC2
:102C900006D1FFF799F9401B0228F5D903202EE24F
:102CA0004A4A536823F0FE43216943EA01635360B3
:102CB000236813F0100F51D0444A136903F038030E
:102CC000926A082B39D0182B33D0E369002B69D0D6
:102CD0003E4A136843F080031360FFF775F9054619
:102CE0003A4B1B6813F4807F53D1FFF76DF9401BFB
:102CF0000228F5D9032002E2344A536823F0FE4348
:102D0000216943EA01635360D2E7304A136823F034
:102D100001031360FFF758F905462C4B1B6813F0AD
:102D2000040FC5D0FFF750F9401B0228F5D9032046
:102D3000E5E102F00302012AC7D1244B1B6813F41A
:102D4000807F03D0E369802B40F0D6811F4AD3688F
:102D500023F07C53216A43EA0163D360236813F0B4
:102D6000080F49D06369002B32D0184A536F43F0E3
:102D700001035367FFF728F90546144B5B6F13F007
:102D8000020F39D1FFF720F9401B0228F5D90320A3
:102D9000B5E10E4AD36823F07C53216A43EA01630C
:102DA000D360DBE7094A136823F080031360FFF761
:102DB0000BF90546054B1B6813F4807FCED0FFF757
:102DC00003F9401B0228F5D9032098E1004402587A
:102DD0009D4A536F23F001035367FFF7F5F805464B
:102DE000994B5B6F13F0020F06D0FFF7EDF8401B15
:102DF0000228F5D9032082E1236813F0200F29D09F
:102E0000A3699BB1904A136843F480531360FFF7A2
:102E1000DBF805468C4B1B6813F4005F1AD1FFF7F3
:102E2000D3F8401B0228F5D9032068E1864A1368CD
:102E300023F480531360FFF7C7F80546824B1B68E5
:102E400013F4005F06D0FFF7BFF8401B0228F5D946
:102E5000032054E1236813F0040F21D1636A002B8F
:102E600000F04C81784A126902F03802182A00F00A
:102E7000F380022B75D0744A136823F080731360BB
:102E8000FFF7A2F80446704B1B6813F0007F00F0B8
:102E9000D880FFF799F8001B0228F4D903202EE10F
:102EA0006A4A136843F480731360FFF78DF8054690
:102EB000664B1B6813F4807F06D1FFF785F8401B33
:102EC0006428F5D903201AE1A368012B0AD00BBBB3
:102ED0005D4B1A6F22F001021A671A6F22F004028A
:102EE0001A6704E0584A136F43F001031367A3689D
:102EF00033B3FFF769F80546534B1B6F13F0020F0E
:102F0000ACD1FFF761F8401B41F288339842F3D906
:102F10000320F4E0052B09D04B4B1A6F22F001027D
:102F20001A671A6F22F004021A67E0E7464B1A6F1D
:102F300042F004021A671A6F42F001021A67D6E7DC
:102F4000FFF742F80546404B1B6F13F0020F85D088
:102F5000FFF73AF8401B41F288339842F3D9032037
:102F6000CDE0394A136823F080731360FFF72CF823
:102F70000546354B1B6813F0007F06D0FFF724F899
:102F8000401B0228F5D90320B9E02F4B996A304A3B
:102F90000A40A16AE06A41EA00110A439A62226B80
:102FA000013AC2F30802616B0139490289B20A434E
:102FB000A16B0139090401F4FE010A43E16B0139F7
:102FC000090601F0FE410A431A63DA6A22F001029F
:102FD000DA62596B1F4A0A40A16C42EAC1025A6385
:102FE000DA6A22F00C02216C0A43DA62DA6A22F011
:102FF0000202616C0A43DA62DA6A42F48032DA620F
:10300000DA6A42F40032DA62DA6A42F48022DA6280
:10301000DA6A42F00102DA621A6842F080721A60DB
:10302000FEF7D2FF0446084B1B6813F0007F06D161
:10303000FEF7CAFF001B0228F5D903205FE000203D
:103040005DE000205BE000BF0044025800480258E9
:103050000CFCFFFF0700FFFF30498A6A086B012B59
:103060004ED002F00303A16A8B424BD1C2F305128A
:10307000E36A9A4248D1C0F30802236B013B9A42AB
:1030800044D1C0F34622636B013B9A4240D1C0F366
:103090000642A36B013B9A423CD1C0F30660E36B4E
:1030A000013B984238D11D4B5B6BC3F3CC03A26C40
:1030B0009A4201D1002022E0184AD36A23F001038A
:1030C000D362FEF781FF0546FEF77EFFA842FBD0E4
:1030D000124A516B124B0B40A16C43EAC10353637C
:1030E000D36A43F00103D362002008E00120704757
:1030F000012004E0012002E0012000E0002038BDB2
:103100000120FCE70120FAE70120F8E70120F6E7BB
:103110000120F4E70120F2E70120F0E70044025823
:103120000700FFFF744B1B6903F03803102B00F0FE
:10313000DE80182B10D00BB1704870476E4B1B68A7
:1031400013F0200F00F0D5806B4B1868C0F3C1005E
:103150006B4B23FA00F0704710B4674A916A01F094
:103160000301946AC4F30510D36A03F0010C536B96
:10317000C3F3CC030CFB03F307EE903AF8EE677A47
:1031800014F47C7F00F09380012965D0022900F0BF
:103190009180E1B107EE100AF8EE476A9FED596A97
:1031A00086EE267A544B1B6BC3F3080306EE903A67
:1031B000F8EE666A9FED546A67EE867A76EEA77A35
:1031C000F7EE006A77EEA67A27EE277A60E01368BA
:1031D00013F0200F23D011461268C2F3C102484BEE
:1031E000D34007EE103AF8EE476A07EE100AB8EE41
:1031F000476A86EE867A0B6BC3F3080306EE903AB5
:10320000F8EE666A9FED406A67EE867A76EEA77AF8
:10321000F7EE006A77EEA67A27EE277A38E007EE17
:10322000100AF8EE476A9FED396A86EE267A324B2D
:103230001B6BC3F3080306EE903AF8EE666A9FED47
:10324000326A67EE867A76EEA77AF7EE006A77EE54
:10325000A67A27EE277A1BE007EE100AF8EE476AF7
:103260009FED286A86EE267A234B1B6BC3F3080377
:1032700006EE903AF8EE666A9FED236A67EE867A6C
:1032800076EEA77AF7EE006A77EEA67A27EE277A2F
:10329000194B1B6BC3F34623013307EE903AF8EE4C
:1032A000677AC7EE276AFCEEE67A17EE900A5DF8B9
:1032B000044B704707EE100AF8EE476A9FED146A58
:1032C00086EE267A0C4B1B6BC3F3080306EE903A8E
:1032D000F8EE666A9FED0C6A67EE867A76EEA77A5C
:1032E000F7EE006A77EEA67A27EE277AD0E709484C
:1032F00070470348704700BF0044025800093D0072
:103300000090D0030024744A000000390024744C5B
:1033100020BCBE4B40787D01002800F0328170B5A2
:103320000D4604469B4B1B6803F00F038B420BD2E8
:10333000984A136823F00F030B431360136803F0DC
:103340000F038B4240F01F81236813F0040F0CD051
:103350002269914B9B6903F070039A4205D98E490B
:103360008B6923F070031A438A61236813F0080FF6
:103370000CD06269884BDB6903F070039A4205D96F
:103380008549CB6923F070031A43CA61236813F09F
:10339000100F0CD0A269804BDB6903F4E0639A4202
:1033A00005D97D49CB6923F4E0631A43CA612368D8
:1033B00013F0200F0CD0E269774B1B6A03F0700307
:1033C0009A4205D974490B6A23F070031A430A62C2
:1033D000236813F0020F0CD0E2686F4B9B6903F077
:1033E0000F039A4205D96C498B6923F00F031A43E6
:1033F0008A61236813F0010F41D0674A936923F46F
:103400007063A1680B4393616368022B0AD0032B9E
:1034100027D0012B2CD0604A126812F0040F06D17D
:103420000120ADE0126812F4003F00F0AE805A496E
:103430000A6922F0070213430B61FEF7C5FD064639
:10344000554B1B6903F038036268B3EBC20F16D00B
:10345000FEF7BAFD801B41F288339842F0D9032071
:103460008EE04D4A126812F0007FE0D1012087E023
:10347000494A126812F4807FD9D1012080E0236884
:1034800013F0020F0CD0E268434B9B6903F00F036B
:103490009A4205D240498B6923F00F031A438A618F
:1034A0003C4B1B6803F00F03AB420AD9394A13683F
:1034B00023F00F032B431360136803F00F03AB4299
:1034C00065D1236813F0040F0CD02269324B9B693D
:1034D00003F070039A4205D22F498B6923F07003E1
:1034E0001A438A61236813F0080F0CD062692A4BD3
:1034F000DB6903F070039A4205D22749CB6923F0B8
:1035000070031A43CA61236813F0100F0CD0A2692C
:10351000214BDB6903F4E0639A4205D21E49CB6973
:1035200023F4E0631A43CA61236813F0200F0CD020
:10353000E269194B1B6A03F070039A4205D21649DF
:103540000B6A23F070031A430A62FFF7EBFD12497E
:103550008B69C3F30323114AD35C03F01F03D840E4
:103560008B6903F00F03D35C03F01F0320FA03F30E
:103570000B4A13600B4B18600B4B1868FEF7C2FC2C
:1035800070BD012070470120FAE70120F8E7012013
:10359000F6E700BF0020005200440258A43601089C
:1035A00014090024100900241C09002408B5FFF7A1
:1035B000B9FD0B4A9369C3F303230A49CB5C03F0BB
:1035C0001F0320FA03F3926902F00F02885C00F0F7
:1035D0001F0023FA00F0044A1060044A136008BD7B
:1035E00000440258A43601081409002410090024DC
:1035F00008B5FFF7DBFF054BDB69C3F30213044A91
:10360000D35C03F01F03D84008BD00BF004402583C
:10361000A436010808B5FFF7C9FF054BDB69C3F302
:103620000223044AD35C03F01F03D84008BD00BF47
:1036300000440258A4360108404B9B6A03F0030380
:10364000032B79D070B505460E463C4A136823F02B
:1036500080631360FEF7B8FC0446384B1B6813F018
:10366000006F06D0FEF7B0FC031B022BF5D9032038
:1036700070BD324B9A6A22F47C32296842EA0132E8
:103680009A626A68013AC2F30802A96801394902DC
:1036900089B20A43E9680139090401F4FE010A43C9
:1036A00029690139090601F0FE410A439A63DA6A81
:1036B00022F0C00269690A43DA62DA6A22F0200263
:1036C000A9690A43DA62DA6A22F01002DA62D96B77
:1036D0001B4A0A40E96942EAC102DA63DA6A42F047
:1036E0001002DA62C6B91A46DB6A43F40023D362D9
:1036F000124A136843F080631360FEF765FC0446CA
:103700000E4B1B6813F0006F14D1FEF75DFC001B1D
:103710000228F5D90320ABE7012E05D0074AD36A6A
:1037200043F40013D362E3E7044AD36A43F48013FB
:10373000D362DDE700209BE7012070470044025878
:103740000700FFFF404B9B6A03F00303032B79D074
:1037500070B505460E463C4A136823F0805313604B
:10376000FEF732FC0446384B1B6813F0005F06D0AE
:10377000FEF72AFC031B022BF5D9032070BD324B48
:103780009A6A22F07C72296842EA01529A626A6857
:10379000013AC2F30802A9680139490289B20A4311
:1037A000E9680139090401F4FE010A432969013974
:1037B000090601F0FE410A431A64DA6A22F4406203
:1037C00069690A43DA62DA6A22F40072A9690A4373
:1037D000DA62DA6A22F48072DA62596C1B4A0A40B1
:1037E000E96942EAC1025A64DA6A42F48072DA6232
:1037F000C6B91A46DB6A43F48003D362124A1368DF
:1038000043F080531360FEF7DFFB04460E4B1B684A
:1038100013F0005F14D1FEF7D7FB001B0228F5D987
:103820000320ABE7012E05D0074AD36A43F080732B
:10383000D362E3E7044AD36A43F40003D362DDE7CB
:1038400000209BE701207047004402580700FFFF5B
:10385000F8B50446036813F0006F30D0436EB3F53B
:10386000001F26D00ED8EBB1B3F5801F07D102217F
:103870000830FFF7E1FE054645B12E4621E001265E
:1038800035461EE0B3F5401F09D100259F4A136D50
:1038900023F44013616E0B431365002611E00126EB
:1038A00035460EE0994AD36A43F40033D3620025CB
:1038B000ECE702212830FFF745FF0546DCE700264C
:1038C0003546236813F4807F27D0A36D042B20D8BE
:1038D000DFE803F00311180808008C4AD36A43F4A8
:1038E0000033D362C5B9894A136D23F00703A16D74
:1038F0000B43136511E0002104F10800FFF79CFE63
:103900000546EFE7002104F12800FFF71BFF0546FD
:10391000E8E70126354600E02E46236813F4806F61
:1039200022D0D4F8A430B3F5800F3FD00DD8BBB36C
:10393000B3F5001F06D1002104F10800FFF77CFE5B
:10394000054608E0012635460EE0B3F5000F02D02B
:10395000B3F5200F1ED185BB6C4A936D23F4600331
:10396000D4F8A4100B439365236813F4006F39D087
:10397000D4F8A830B3F1007F5AD023D8002B51D00F
:10398000B3F1807F1BD1002104F10800FFF754FE42
:1039900005461DE0B3F5C00FDDD001263546E3E74F
:1039A0005A4AD36A43F40033D362D4E7002104F1C6
:1039B0002800FFF7C7FE0546CDE72E46D4E70126CF
:1039C00035460FE0B3F1806F02D0B3F1A06F23D181
:1039D000002D34D14D4A936D23F0E063D4F8A81044
:1039E0000B439365236813F0007F31D0E36C202BE9
:1039F00042D029D833B1102B23D1444AD36A43F49F
:103A00000033D362002D3ED1404AD36C23F0300303
:103A1000E16C0B43D3641BE0B3F1407FD8D00126A7
:103A20003546DFE7394AD36A43F40033D362CFE740
:103A3000002104F12800FFF785FE0546C8E72E4661
:103A4000D0E70126354603E0302BDBD00126354692
:103A5000236813F4805F3BD0E36DB3F5005F2FD094
:103A600016D83BB3B3F5805F0FD1002104F10800F5
:103A7000FFF7E2FD054611E0022104F10800FFF71F
:103A8000DBFD0546BEE72E46E2E7012635461FE090
:103A9000B3F5405F02D0B3F5804F08D1BDB91B4AE2
:103AA000136D23F4E043E16D0B43136510E0012631
:103AB00035460DE0154AD36A43F40033D362EDE78F
:103AC000002104F12800FFF73DFE0546E6E72E46FB
:103AD000236813F4005F29D0236EB3F5003F44D070
:103AE00019D843B1B3F5803F12D1012104F1080088
:103AF000FFF7A2FD0546002D3ED1044A136D23F4C5
:103B0000E023216E0B43136510E000BF0044025810
:103B1000012635460AE0B3F5802FECD0B3F5A02F8F
:103B2000E9D0B3F5403FE6D001263546236813F4CB
:103B3000804F31D0D4F8AC30B3F1005F45D020D8FD
:103B400043B1B3F1805F19D1012104F10800FFF7FF
:103B500073FD0546002D3FD18F4A936D23F0E0435E
:103B6000D4F8AC100B43936516E0012104F1280052
:103B7000FFF7E8FD0546BEE72E46D7E701263546A6
:103B80000AE0B3F1804FE5D0B3F1A04FE2D0B3F13A
:103B9000405FDFD001263546236813F4004F09D07B
:103BA000E36EB3F1805F19D0B3F1005F24D0D3B1DD
:103BB00001263546236813F0807F33D0A36C032B96
:103BC0005BD8DFE803F027225327012104F1280006
:103BD000FFF7B8FD0546BDE72E46DDE76E4AD36A1E
:103BE00043F40033D36275B96B4A136D23F040532D
:103BF000E16E0B431365DDE7012104F10800FFF7D7
:103C00001BFD0546EFE72E46D4E7634AD36A43F42B
:103C10000033D362A5BB604AD36C23F00303A16CCD
:103C20000B43D364236813F4800F2BD1236813F064
:103C3000010F00F0A380A36F282B00F29D80DFE826
:103C400003F08B9B9B9B9B9B9B9B859B9B9B9B9B2D
:103C50009B9B949B9B9B9B9B9B9B8B9B9B9B9B9BCB
:103C60009B9B8B9B9B9B9B9B9B9B8B00022104F1B3
:103C70000800FFF7E1FC0546CCE701263546D1E711
:103C80002E46CFE7454A136843F480731360FEF76E
:103C90009BF90746414B1B6813F4807F05D1FEF763
:103CA00093F9C01B6428F5D90325002D4AD13A4B5E
:103CB0001B6FD4F8B020534013F4407F0CD0364B28
:103CC0001A6F22F44072196F41F480311967196F2D
:103CD00021F4803119671A67D4F8B030B3F5807FCA
:103CE00015D08DBBD4F8B03003F44072B2F5407FEC
:103CF0001ED0294A136923F47C53136126490B6FA4
:103D0000D4F8B020C2F30B0213430B678EE7FEF723
:103D10005BF90746204B1B6F13F0020FE1D1FEF752
:103D200053F9C01B41F288339842F3D90325D8E7F1
:103D30001948026922F47C52194901EA131313430A
:103D40000361DBE72E4671E72E466FE7012104F1A0
:103D50000800FFF771FC0546E5B90F4A536D23F0E3
:103D60003803A16F0B43536508E0012104F12800DB
:103D7000FFF7E8FC0546EFE701263546236813F018
:103D8000020F1DD0636F052B2ED8DFE803F0110B57
:103D9000261111112E46F1E700440258004802583E
:103DA000CFFFFF00012104F10800FFF745FC0546A5
:103DB000EDB9A94A536D23F00703616F0B435365B7
:103DC000236813F0040F23D0D4F89030052B45D886
:103DD000DFE803F0150F3D151515012104F128004A
:103DE000FFF7B0FC0546E3E701263546E8E72E4637
:103DF000E6E7012104F10800FFF71EFC054685BB3C
:103E0000954A936D23F00703D4F890100B43936504
:103E1000236813F0200F34D0D4F88C30B3F1005F56
:103E20004ED023D843B1B3F1805F1CD1002104F1FF
:103E30000800FFF701FC0546002D48D1864A536D66
:103E400023F0E043D4F88C100B43536519E00121B3
:103E500004F12800FFF776FC0546D0E70126354639
:103E6000D6E72E46D4E7012635460AE0B3F1804F67
:103E7000E2D0B3F1A04FDFD0B3F1405FDCD0012638
:103E80003546236813F0400F31D0D4F89830B3F59D
:103E9000006F4DD020D843B1B3F5806F19D1002108
:103EA00004F10800FFF7C8FB0546002D47D16A4A18
:103EB000936D23F4E053D4F898100B43936516E008
:103EC000022104F12800FFF73DFC0546B4E72E4629
:103ED000D7E7012635460AE0B3F5805FE5D0B3F5B4
:103EE000A05FE2D0B3F5406FDFD0012635462368EE
:103EF00013F0800F33D0D4F89C30B3F5804F00F02E
:103F0000A18021D843B1B3F5005F1AD1002104F19B
:103F10000800FFF791FB0546002D40F09A804E4ABD
:103F2000936D23F46043D4F89C100B43936516E023
:103F3000022104F12800FFF705FC0546B5E72E46EF
:103F4000D5E7012635460AE0B3F5004FE4D0B3F5D6
:103F5000204FE1D0B3F5C04FDED0012635462368AF
:103F600013F0080F0CD0D4F88030B3F5805F75D013
:103F7000394A536D23F44053D4F880100B435365F2
:103F8000236813F0100F0CD0D4F89430B3F5807F71
:103F90006DD0314A936D23F44073D4F894100B43E1
:103FA0009365236813F4002F0BD0D4F8A030B3F539
:103FB000803F75D0B3F5003F68D0002B60D001265C
:103FC0003546236813F4802F0CD0D4F88430B3F531
:103FD000001F7DD0B3F5401F70D0B3F5801F68D0AF
:103FE00001263546236813F4803F08D0236D002B4B
:103FF00077D0B3F5803F00F08280012635462368F4
:1040000013F0005F40F08480236813F4003F00F059
:104010008C80E36FB3F5807F00F0DF8040F2828018
:10402000B3F5007F03D0B3F5407F40F0D480002D7E
:1040300040F0D980084A536D23F44073E16F0B437D
:10404000536572E0022104F12800FFF77BFB05466F
:1040500062E72E4683E700BF00440258022104F1C4
:104060002800FFF76FFB002882D0012680E702219D
:1040700004F12800FFF766FB00288AD0012688E7B4
:10408000002104F10800FFF7D7FA05467DB9724A0E
:10409000936D23F44033D4F8A0100B43936590E75D
:1040A000022104F12800FFF74DFB0546EEE72E46FE
:1040B00087E7694AD36A43F40033D3627DB9664A1D
:1040C000536D23F44013D4F884100B43536589E7F0
:1040D000012104F12800FFF735FB0546EEE72E46E7
:1040E00080E75D4AD36A43F40033D36275B95A4A14
:1040F000D36C23F48033216D0B43D3647FE702211B
:1041000004F10800FFF798FA0546EFE72E4676E738
:10411000022104F12800FFF715FB00283FF474AFDB
:10412000012671E7002B82D00126236813F4801F3B
:1041300006D0494A136D23F00043216F0B431365EA
:10414000236813F4001F06D0434A136D23F08073D5
:10415000A16E0B431365236813F0804F09D03E4BCB
:104160001A6922F400421A611A69D4F8B4100A4399
:104170001A612368002B06DA374AD36C23F04053C8
:10418000616D0B43D364236813F4000F07D0324AE8
:10419000536D23F44003D4F888100B4353656368D0
:1041A00013F0010F21D1636813F0020F26D1636869
:1041B00013F0040F2BD1636813F0080F30D163683C
:1041C00013F0100F35D1636813F0200F3AD106B108
:1041D00001263046F8BD0126A7E71F4AD36A43F4FB
:1041E0000033D36223E72E469FE7002104F1080045
:1041F000FFF722FA0028D6D00646D4E7012104F1C1
:104200000800FFF719FA0028D1D00646CFE70221AF
:1042100004F10800FFF710FA0028CCD00646CAE7E0
:10422000002104F12800FFF78DFA0028C7D00646C8
:10423000C5E7012104F12800FFF784FA0028C2D065
:104240000646C0E7022104F12800FFF77BFA0028A8
:10425000BDD00646BBE700BF0044025808B5FFF7D3
:10426000A5F9054B1B6AC3F30213044AD35C03F0A0
:104270001F03D84008BD00BF00440258A4360108FF
:1042800010B5774A916A946AC4F3053ED36AC3F3C2
:10429000001CD36BC3F3CC030CFB03F314F47C3F7F
:1042A00000F0D88001F0030107EE903AF8EE677A4B
:1042B000012965D0022900F0B080E1B107EE10EAD3
:1042C000B8EE477A9FED676AC6EE076A644B9B6B50
:1042D000C3F3080307EE103AB8EE477A9FED626A1F
:1042E00067EE867A77EE277AB7EE007A77EE877AEE
:1042F00066EEA76A60E0136813F0200F23D0114622
:104300001268C2F3C102594BD34007EE103AB8EE1F
:10431000477A06EE90EAB8EE666AC7EE066A8B6BDD
:10432000C3F3080307EE103AB8EE477A9FED4E6AE2
:1043300067EE867A77EE277AB7EE007A77EE877A9D
:1043400066EEA76A38E007EE10EAB8EE477A9FED0E
:10435000486AC6EE076A424B9B6BC3F3080307EE3D
:10436000103AB8EE477A9FED406A67EE867A77EEAC
:10437000277AB7EE007A77EE877A66EEA76A1BE0B7
:1043800007EE10EAB8EE477A9FED366AC6EE076A86
:10439000334B9B6BC3F3080307EE103AB8EE477A32
:1043A0009FED316A67EE867A77EE277AB7EE007A6C
:1043B00077EE877A66EEA76A294A936BC3F34623A2
:1043C00007EE103AB8EE477AB7EE006A37EE067A93
:1043D000C6EE877AFCEEE77AC0ED007A936BC3F302
:1043E000064307EE103AB8EE477A37EE067AC6EE85
:1043F000877AFCEEE77AC0ED017A936BC3F306632C
:1044000007EE903AF8EE677A77EE867A86EEA77A2C
:10441000BCEEC77A80ED027A10BD07EE10EAB8EE66
:10442000477A9FED146AC6EE076A0D4B9B6BC3F388
:10443000080307EE103AB8EE477A9FED0B6A67EE75
:10444000867A77EE277AB7EE007A77EE877A66EE8D
:10445000A76AB1E70023036043608360DCE700BF25
:10446000004402580024744A000000390090D00330
:104470000024744C20BCBE4B10B5774A916A946AF4
:10448000C4F3055ED36AC3F3002C536CC3F3CC03AF
:104490000CFB03F314F07C7F00F0D88001F00301E3
:1044A00007EE903AF8EE677A012965D0022900F00C
:1044B000B080E1B107EE10EAB8EE477A9FED676A87
:1044C000C6EE076A644B1B6CC3F3080307EE103A91
:1044D000B8EE477A9FED626A67EE867A77EE277AC2
:1044E000B7EE007A77EE877A66EEA76A60E0136827
:1044F00013F0200F23D011461268C2F3C102594BAA
:10450000D34007EE103AB8EE477A06EE90EAB8EEDE
:10451000666AC7EE066A0B6CC3F3080307EE103A2F
:10452000B8EE477A9FED4E6A67EE867A77EE277A85
:10453000B7EE007A77EE877A66EEA76A38E007EE84
:1045400010EAB8EE477A9FED486AC6EE076A424B1A
:104550001B6CC3F3080307EE103AB8EE477A9FEDE1
:10456000406A67EE867A77EE277AB7EE007A77EEC2
:10457000877A66EEA76A1BE007EE10EAB8EE477A84
:104580009FED366AC6EE076A334B1B6CC3F3080314
:1045900007EE103AB8EE477A9FED316A67EE867AF9
:1045A00077EE277AB7EE007A77EE877A66EEA76A1B
:1045B000294A136CC3F3462307EE103AB8EE477A44
:1045C000B7EE006A37EE067AC6EE877AFCEEE77A37
:1045D000C0ED007A136CC3F3064307EE103AB8EE51
:1045E000477A37EE067AC6EE877AFCEEE77AC0EDB8
:1045F000017A136CC3F3066307EE903AF8EE677A1C
:1046000077EE867A86EEA77ABCEEC77A80ED027ADC
:1046100010BD07EE10EAB8EE477A9FED146AC6EEB9
:10462000076A0D4B1B6CC3F3080307EE103AB8EE94
:10463000477A9FED0B6A67EE867A77EE277AB7EEB8
:10464000007A77EE877A66EEA76AB1E70023036007
:1046500043608360DCE700BF004402580024744AD2
:10466000000000390090D0030024744C20BCBE4BE5
:1046700090F83D30DBB2012B42D1022380F83D306F
:104680000268D36843F00103D36003681E4AB3F1A4
:10469000804F18BF934225D0A2F57C42934221D08F
:1046A00002F5806293421DD002F58062934219D0D8
:1046B00002F57842934215D0A2F56C42934211D094
:1046C00002F5943293420DD0A2F5C042934209D034
:1046D00002F58062934205D01A6842F001021A6026
:1046E000002070479968094A0A40062A18BFB2F5A7
:1046F000803F07D01A6842F001021A60002070471C
:1047000001207047002070470000014007000100B1
:10471000704770477047704710B5044603681A69C0
:1047200012F0020F11D0DA6812F0020F0DD06FF004
:1047300002021A610123037703689B6913F0030FD8
:1047400079D0FFF7E6FF0023237723681A6912F078
:10475000040F12D0DA6812F0040F0ED06FF00402CA
:104760001A610223237723689B6913F4407F68D082
:104770002046FFF7CEFF0023237723681A6912F043
:10478000080F12D0DA6812F0080F0ED06FF008028E
:104790001A61042323772368DB6913F0030F57D0D2
:1047A0002046FFF7B6FF0023237723681A6912F02B
:1047B000100F12D0DA6812F0100F0ED06FF0100246
:1047C0001A61082323772368DB6913F4407F46D0FE
:1047D0002046FFF79EFF0023237723681A6912F013
:1047E000010F03D0DA6812F0010F3FD123681A6974
:1047F00012F0800F03D0DA6812F0800F3DD12368E9
:104800001A6912F4807F03D0DA6812F0800F3BD16E
:1048100023681A6912F0400F03D0DA6812F0400FD3
:1048200039D123681A6912F0200F03D0DA6812F028
:10483000200F37D110BDFFF76BFF2046FFF76AFF4F
:1048400081E72046FFF764FF2046FFF763FF92E70A
:104850002046FFF75DFF2046FFF75CFFA3E72046F9
:10486000FFF756FF2046FFF755FFB4E76FF0010250
:104870001A612046FCF760FFB8E76FF080021A610A
:10488000204600F030F9BAE76FF480721A612046D2
:1048900000F02AF9BCE76FF040021A612046FFF7EA
:1048A0003AFFBEE76FF020021A61204600F01AF9C5
:1048B000C0E7000030B503683E4A904214BF4FF095
:1048C000000E4FF0010EB0F1804F14BF72464EF053
:1048D0000102AAB9384CA04214BF00240124374D6C
:1048E000A8420DD064B904F1804404F58234A0429A
:1048F00014BF0024012405F50065A84200D01CB1B6
:1049000023F070034C68234362BB2B4A904214BFD0
:1049100000220122294CA04224D01ABB02F180427D
:1049200002F58232904214BF0022012204F5006495
:10493000A04217D0B2B9224A904214BF00220122ED
:1049400004F59A34A0420DD062B91E4A904214BFB9
:104950000022012204F50064A04203D012B91A4AD1
:10496000904204D123F4407CCB6843EA0C0323F04B
:1049700080034A69134303608A68C2620A688262DC
:10498000124A904214BF73464EF0010363B90C4BB8
:10499000984214BF0023012302F57052904203D0C5
:1049A00013B90B4B984201D10B6903630123436197
:1049B00030BD00BF0000014000080040000400407E
:1049C0000044014000E0004000E4004000040140D9
:1049D0000048014060B310B5044690F83D3013B371
:1049E000022384F83D30214651F8040BFFF762FFA3
:1049F000012384F8483084F83E3084F83F3084F84E
:104A0000403084F8413084F8423084F8433084F8F0
:104A1000443084F8453084F8463084F8473084F8D0
:104A20003D30002010BD80F83C30FDF721F9D7E77C
:104A30000120704790F83C30012B4DD070B4012319
:104A400080F83C30022380F83D3003685A689C6847
:104A5000224E234DAB4218BFB34203D122F4700261
:104A60004D682A4322F070020D682A435A60036899
:104A70001A4AB3F1804F18BF93421FD0A2F57C426F
:104A800093421BD002F58062934217D002F58062F8
:104A9000934213D002F5784293420FD0A2F56C42B4
:104AA00093420BD002F59432934207D0A2F5C04254
:104AB000934203D002F58062934204D124F0800433
:104AC0008A6814439C60012380F83D30002380F8FD
:104AD0003C30184670BC704702207047000001400F
:104AE000000401407047704770470000026852E8B8
:104AF000003F23F4907342E800310029F6D10268A8
:104B000002F1080353E8001F0D4B0B40083242E846
:104B100000310029F3D1C36E012B06D02023C0F849
:104B20008C300023C36643677047026852E8003F39
:104B300023F0100342E800310029F6D1EEE700BF70
:104B4000FEFFFFEF704708B5026852E8003F23F010
:104B5000400342E800310029F6D12023C0F8883014
:104B600000238367FFF7EEFF08BD704708B5806B31
:104B70000023A0F85E30A0F85630FFF7F6FF08BD1E
:104B80007047000070B504460168CB6908688D68FD
:104B900040F60F021A4008D113F0200F05D010F094
:104BA000200F34D115F0805F31D12AB18B4A2A40D1
:104BB00033D18B4E304230D1E26E012A00F0C680F4
:104BC00013F4801F03D015F4800F40F09B8113F085
:104BD000800F07D010F0800F40F09B8115F4000F7C
:104BE00040F0978113F0400F03D010F0400F40F0D9
:104BF000978113F4000F03D010F0804F40F09481A0
:104C000013F0807F02D00028C0F2928170BD636FE4
:104C1000002BFBD020469847F8E713F0010F09D08E
:104C200010F4807F06D001260E62D4F89010314334
:104C3000C4F8901013F0020F0BD015F0010F08D03C
:104C4000216802260E62D4F8901041F00401C4F8E5
:104C5000901013F0040F0BD015F0010F08D021684D
:104C600004260E62D4F8901041F00201C4F89010AE
:104C700013F0080F0BD010F0200F00D13AB12268CA
:104C800008211162D4F890200A43C4F8902013F44C
:104C9000006F0CD010F0806F09D022684FF40061D3
:104CA0001162D4F8902042F02002C4F89020D4F889
:104CB0009020002AAAD013F0200F09D010F0200F66
:104CC00002D115F0805F03D0636F0BB12046984787
:104CD000D4F8902023689B6813F0400F02D112F0A3
:104CE000280F2CD02046FFF701FF23689B6813F0A4
:104CF000400F20D0226802F1080353E8003F23F060
:104D00004003083242E800310029F3D1D4F8803062
:104D10006BB1344A1A65D4F88000FDF7F5FB002822
:104D20003FF474AFD4F88000036D98476EE72046D7
:104D3000FFF71BFF6AE72046FFF717FF66E72046ED
:104D4000FFF713FF0023C4F890305FE713F0100F54
:104D50003FF436AF10F0100F3FF432AF10230B6268
:104D600023689B6813F0400F00F09280D4F88020F5
:104D700013681D481D498B4218BF834238D0183133
:104D80008B4235D018318B4232D018318B422FD024
:104D900018318B422CD018318B4229D018318B42DC
:104DA00026D001F556718B4222D018318B421FD08C
:104DB00018318B421CD018318B4219D018318B42DC
:104DC00016D018318B4213D018318B4210D01831C5
:104DD0008B420DD05B689BB20CE000BF010000105D
:104DE000200100046D4B0008100002402800024022
:104DF0005B689BB2002B3FF409AFB4F85C1099429A
:104E00007FF604AFA4F85E30D369B3F5807F32D06B
:104E1000226852E8003F23F4807342E80031002901
:104E2000F6D1226802F1080353E8003F23F00103A2
:104E3000083242E800310029F3D1226802F1080368
:104E400053E8003F23F04003083242E800310029D4
:104E5000F3D12023C4F88C300023E366226852E8A3
:104E6000003F23F0100342E800310029F6D1D4F8C6
:104E70008000FDF7A9F902232367B4F85C10B4F8A9
:104E80005E309BB2C91A89B22046FFF779FEBDE6B3
:104E9000B4F85C10B4F85E309BB2C91A89B2B4F8A9
:104EA0005E309BB2002B3FF4B1AE00293FF4AEAEB2
:104EB000226852E8003F23F4907342E80030002853
:104EC000F6D1226802F1080353E8000F1A4B0340A1
:104ED000083242E800300028F3D12023C4F88C3097
:104EE0000023E3666367226852E8003F23F0100363
:104EF00042E800300028F6D1022323672046FFF75E
:104F00003FFE83E64FF480130B62204601F0B4F8B5
:104F10007CE6A36F002B3FF479AE2046984775E6F8
:104F20002046FFF710FE71E6204601F0A7F86DE677
:104F3000204601F0A2F869E6FEFFFFEF08B5B0F8E1
:104F40006030D0F88C20222A05D00268936943F0A3
:104F50000803936108BD0268516ADBB2826D0B40A1
:104F60001370836D01338365B0F85E309BB2013BF3
:104F70009BB2A0F85E30B0F85E309BB2002BE9D156
:104F8000026852E8003F23F4907342E800310029A0
:104F9000F6D1026802F1080353E8003F23F0010351
:104FA000083242E800310029F3D12023C0F88C30C8
:104FB0000023436703670368164A93420CD05B687B
:104FC00013F4000F08D0026852E8003F23F080631A
:104FD00042E800310029F6D1C36E012B16D100231F
:104FE000C366026852E8003F23F0100342E8003134
:104FF0000029F6D10368DA6912F0100F01D01022EF
:105000001A62B0F85C10FFF7BBFDA3E7FCF7A2FB48
:10501000A0E700BF000C005808B5B0F86020D0F839
:105020008C30222B05D00268936943F0080393610A
:1050300008BD03685B6A816D13400B80836D02338A
:105040008365B0F85E309BB2013B9BB2A0F85E3046
:10505000B0F85E309BB2002BEAD1026852E8003F04
:1050600023F4907342E800310029F6D1026802F17E
:10507000080353E8003F23F00103083242E80031FF
:105080000029F3D12023C0F88C3000234367036745
:105090000368164A93420CD05B6813F4000F08D0E3
:1050A000026852E8003F23F0806342E800310029A3
:1050B000F6D1C36E012B16D10023C366026852E8F5
:1050C000003F23F0100342E800310029F6D10368C5
:1050D000DA6912F0100F01D010221A62B0F85C10D9
:1050E000FFF74EFDA4E7FCF735FBA1E7000C0058E5
:1050F0002DE9F843B0F860600368DD69D3F80090EB
:10510000D3F80880D0F88C20222A05D09A6942F082
:1051100008029A61BDE8F8830446B0F8687008E0B8
:10512000D4F89030002B4CD1B4F85E309BB2002BF9
:105130004ED0002F00F0988015F0200F00F09480E2
:105140002368596AF3B2A26D0B401370A36D01334B
:10515000A365B4F85E309BB2013B9BB2A4F85E300D
:105160002368DD6915F0070FDED015F0010F09D0B7
:1051700019F4807F06D001221A62D4F890301343CC
:10518000C4F8903015F0020F0BD018F0010F08D0C2
:10519000236802221A62D4F8903043F00403C4F862
:1051A000903015F0040FBBD018F0010FB8D0236871
:1051B00004221A62D4F8903043F00203C4F890300D
:1051C000AEE72046FFF7D1FC0023C4F89030ABE7F0
:1051D000226852E8003F23F4807342E8003100293E
:1051E000F6D1226802F1080353E8001F304B0B4050
:1051F000083242E800310029F3D12023C4F88C3072
:1052000000236367236723682A4A934203D05B68BD
:1052100013F4000F06D1E36E012B0DD02046FCF7EE
:1052200099FA86E7226852E8003F23F0806342E85B
:1052300000310029F6D1EEE70023E366226852E848
:10524000003F23F0100342E800310029F6D1236823
:10525000DA6912F0100F01D010221A62B4F85C1053
:105260002046FFF78DFC64E7B4F85E309BB2002B5C
:105270003FF450AFB4F868209A427FF64BAF2268F3
:1052800002F1080353E8003F23F08053083242E85C
:1052900000310029F3D1084B6367226852E8003FD0
:1052A00043F0200342E800310029F6D132E700BF85
:1052B000FEFFFFEF000C00583D4F00082DE9F843BA
:1052C000B0F860600368DD69D3F80090D3F8088017
:1052D000D0F88C20222A05D09A6942F008029A61FF
:1052E000BDE8F8830446B0F8687008E0D4F8903060
:1052F000002B4BD1B4F85E309BB2002B4DD0002F69
:1053000000F0978015F0200F00F0938023685B6A0F
:10531000A26D33401380A36D0233A365B4F85E30F1
:105320009BB2013B9BB2A4F85E302368DD6915F0A7
:10533000070FDFD015F0010F09D019F4807F06D0D8
:1053400001221A62D4F890301343C4F8903015F05B
:10535000020F0BD018F0010F08D0236802221A6246
:10536000D4F8903043F00403C4F8903015F0040FE3
:10537000BCD018F0010FB9D0236804221A62D4F807
:10538000903043F00203C4F89030AFE72046FFF7B7
:10539000ECFB0023C4F89030ACE7226852E8003FF1
:1053A00023F4807342E800310029F6D1226802F12B
:1053B000080353E8001F304B0B40083242E800312D
:1053C0000029F3D12023C4F88C30002363672367BE
:1053D00023682A4A934203D05B6813F4000F06D176
:1053E000E36E012B0DD02046FCF7B4F987E7226865
:1053F00052E8003F23F0806342E800310029F6D1F3
:10540000EEE70023E366226852E8003F23F0100332
:1054100042E800310029F6D12368DA6912F0100F52
:1054200001D010221A62B4F85C102046FFF7A8FBE6
:1054300065E7B4F85E309BB2002B3FF451AFB4F88F
:1054400068209A427FF64CAF226802F1080353E8C5
:10545000003F23F08053083242E800310029F3D1A5
:10546000074B6367226852E8003F43F0200342E89D
:1054700000310029F6D133E7FEFFFFEF000C0058A2
:105480001950000870B586B0044601688368026947
:10549000134342691343C26913430868904A0240A8
:1054A00013430B602268536823F44053E1680B43B5
:1054B0005360A16922688B4B9A4201D0236A194339
:1054C0009068894B03400B4393602268D36A23F0B2
:1054D0000F03616A0B43D3622268844B9A4229D03E
:1054E000834B9A4200F09480824B9A4200F0AA804B
:1054F000814B9A4200F0C080804B9A4200F0D680E7
:105500007F4B9A4200F008817E4B9A4200F02D8139
:105510007D4B9A4200F040817C4B9A4200F05381CF
:105520007B4B9A4200F078816E4B9A4200F09D814D
:10553000802333E0774B5B6D03F03803282B65D86D
:10554000DFE813F029006400640064006400640074
:1055500064006400AB0164006400640064006400E3
:10556000640064002B006400640064006400640054
:10557000640064005E006400640064006400640011
:1055800064006400600064006400640064006400FF
:10559000640064006200012300E0082351498A424C
:1055A00000F09481E069B0F5004F00F00A82202BF2
:1055B00000F26282202B00F2AC82DFE813F0790265
:1055C0007F02AA02AA028202AA02AA02AA028702F1
:1055D000AA02AA02AA02AA02AA02AA02AA028C0289
:1055E000AA02AA02AA02AA02AA02AA02AA02AA025B
:1055F000AA02AA02AA02AA02AA02AA02AA0298025D
:105600001023CBE72023C9E74023C7E78023C5E762
:10561000404B5B6D03F00703052B11D8DFE813F057
:1056200006003F0108000A000C000E000023B5E749
:105630000823B3E71023B1E72023AFE74023ADE70A
:105640008023ABE7334B5B6D03F00703052B11D8C9
:10565000DFE813F00600270108000A000C000E0026
:1056600000239BE7082399E7102397E7202395E77A
:10567000402393E7802391E7264B5B6D03F00703FC
:10568000052B11D8DFE813F006000F0108000A000F
:105690000C000E00002381E708237FE710237DE73D
:1056A00020237BE7402379E7802377E7194B5B6D65
:1056B00003F00703052B11D8DFE813F00600F7000D
:1056C00008000A000C000E00002367E7082365E7C6
:1056D000102363E7202361E740235FE780235DE732
:1056E000F369FFCF000C0058FFF4FF1100100140D8
:1056F0000044004000480040004C00400050004082
:105700000014014000780040007C00400018014077
:10571000001C014000440258694B5B6D03F03803E4
:10572000282B20D8DFE803F0151F1F1F1F1F1F1F86
:10573000C31F1F1F1F1F1F1F171F1F1F1F1F1F1FDD
:10574000191F1F1F1F1F1F1F1B1F1F1F1F1F1F1F73
:105750001D00012322E7082320E710231EE7202352
:105760001CE740231AE7802318E7554B5B6D03F0D5
:105770000703052B0ED8DFE803F0039C0507090B90
:1057800000230BE7082309E7102307E7202305E799
:10579000402303E7802301E7494B5B6D03F00703D8
:1057A000052B0ED8DFE803F003870507090B00235C
:1057B000F4E60823F2E61023F0E62023EEE6402389
:1057C000ECE68023EAE63E4B5B6D03F03803282BC2
:1057D00020D8DFE803F0151F1F1F1F1F1F1F721F98
:1057E0001F1F1F1F1F1F171F1F1F1F1F1F1F191FD7
:1057F0001F1F1F1F1F1F1B1F1F1F1F1F1F1F1D00DE
:105800000123CBE60823C9E61023C7E62023C5E61B
:105810004023C3E68023C1E6294B5B6D03F03803C8
:10582000282B20D8DFE803F0151F1F1F1F1F1F1F85
:105830004E1F1F1F1F1F1F1F171F1F1F1F1F1F1F51
:10584000191F1F1F1F1F1F1F1B1F1F1F1F1F1F1F72
:105850001D000123A2E60823A0E610239EE62023D4
:105860009CE640239AE6802398E603F50E339B6D71
:1058700003F00703052B0ED8DFE803F00326050726
:10588000090B02238AE6082388E6102386E62023F4
:1058900084E6402382E6802380E604237EE6042318
:1058A0007CE604237AE6042378E6042376E60423E0
:1058B00074E6042372E6042370E604236EE600BF58
:1058C00000440258042369E6042367E6202B27D806
:1058D000022BC0F01081023B1E2B00F20E81DFE88C
:1058E00013F050000C0156000C010C010C015B0080
:1058F0000C010C010C010C010C010C010C016000ED
:105900000C010C010C010C010C010C010C010C012F
:105910000C010C010C010C010C010C010C016C00C0
:10592000402B2CD14FF40040626A804B33F8122098
:10593000B0FBF2F3656805EB4501994200F2DF80A8
:10594000B3EB053F00F2DD80002633463146FAF71F
:10595000B3FE090241EA106100026B08C0182A4632
:10596000334641F10001FAF7A7FEA0F54072704BF3
:105970009A4200F2C8802368D8603046CAE001200D
:10598000C8E0FEF76BFC0028CED10020C2E003A8DF
:10599000FEF776FC0498F6E76846FEF76DFD019881
:1059A000F1E7644B1B6813F0200F08D0614B1B68B4
:1059B000C3F3C1036048D840E5E76048B4E75E48F8
:1059C000B2E7202B15D8202B00F29F80DFE803F0F0
:1059D00031379D9D3A9D9D9D3F9D9D9D9D9D9D9D8A
:1059E000449D9D9D9D9D9D9D9D9D9D9D9D9D9D9D40
:1059F0005000402B1BD1626A4C4B33F81230B0FB85
:105A0000F3F06268530803EB4000B0FBF2F0A0F142
:105A100010024FF6EF739A4279D883B223F00F0346
:105A2000C0F3420018432368D860002072E00120D0
:105A300070E0FDF7DDFD0028DDD100206AE0FDF714
:105A4000E9FDF8E703A8FEF71BFC0498F3E76846B6
:105A5000FEF712FD0198EEE7364B1B6813F0200F9E
:105A600008D0344B1B68C3F3C1033348D840E2E786
:105A70003248C0E73048BEE7402B17D14FF4004012
:105A8000626A2A4B33F81230B0FBF3F0636800EB24
:105A90005300B0FBF3F0A0F110024FF6EF739A42FF
:105AA00042D8236880B2D860002033E0012031E082
:105AB000FDF79EFD0028E3D100202BE0FDF7AAFDB5
:105AC000F8E703A8FEF7DCFB0498F3E76846FEF767
:105AD000D3FC0198EEE7174B1B6813F0200F08D09A
:105AE000144B1B68C3F3C1031348D840E2E71348C3
:105AF000C6E71148C4E701200CE001200AE00120BC
:105B000008E0012006E0012004E0012002E001207D
