:020000040800F2
:100000000000052445100008B90D0008BB0D0008CC
:10001000BD0D0008BF0D0008C10D00080000000064
:10002000000000000000000000000000C30D0008F8
:10003000C50D000800000000C70D0008C90D00082C
:1000400095100008951000089510000895100008FC
:1000500095100008951000089510000895100008EC
:1000600095100008951000089510000895100008DC
:1000700095100008951000089510000895100008CC
:1000800095100008951000089510000895100008BC
:1000900095100008951000089510000895100008AC
:1000A000951000089510000895100008951000089C
:1000B000951000089510000895100008951000088C
:1000C000951000089510000895100008951000087C
:1000D00095100008D10D0008951000089510000833
:1000E0009510000895100008000000009510000809
:1000F000951000089510000895100008951000084C
:10010000951000089510000895100008951000083B
:100110009510000895100008F10D000895100008D2
:10012000951000089510000895100008951000081B
:10013000951000089510000895100008951000080B
:1001400000000000000000000000000000000000AF
:1001500095100008951000089510000895100008EB
:1001600095100008951000089510000895100008DB
:100170009510000895100008951000080000000078
:1001800095100008951000089510000895100008BB
:1001900095100008951000089510000895100008AB
:1001A0009510000895100008951000080000000048
:1001B000951000089510000895100008951000088B
:1001C00095100008951000080000000000000000D5
:1001D0000000000000000000951000080000000072
:1001E000000000000000000000000000000000000F
:1001F00000000000000000009510000895100008A5
:1002000095100008951000080000000095100008E7
:10021000951000089510000895100008951000082A
:100220009510000800000000951000080000000074
:1002300095100008951000080000000095100008B7
:1002400095100008951000089510000895100008FA
:1002500095100008951000089510000895100008EA
:1002600095100008951000089510000895100008DA
:100270009510000895100008951000080000000077
:1002800095100008951000089510000895100008BA
:100290000000000095100008951000080000000004
:1002A0000000000095100008951000089510000847
:1002B000951000089510000895100008951000088A
:0C02C0009510000895100008951000082B
:1002CC0010B5054C237833B9044B13B10448AFF384
:1002DC0000800123237010BD3C04002400000000AA
:1002EC008454000808B5034B1BB103490348AFF312
:1002FC00008008BD00000000400400248454000865
:10030C0080F0004002E000BF81F0004142001FBFBE
:10031C005FEA410392EA030F7FEA226C7FEA236CC7
:10032C006AD04FEA1262D2EB1363C1BFD2184140BC
:10033C0048404140B8BF5B42192B88BF704710F052
:10034C00004F40F4000020F07F4018BF404211F0F5
:10035C00004F41F4000121F07F4118BF494292EA5D
:10036C00030F3FD0A2F1010241FA03FC10EB0C0089
:10037C00C3F1200301FA03F100F0004302D5494216
:10038C0060EB4000B0F5000F13D3B0F1807F06D3C3
:10039C0040084FEA310102F10102FE2A51D2B1F1BB
:1003AC00004F40EBC25008BF20F0010040EA0300B0
:1003BC007047490040EB0000013A28BFB0F5000F30
:1003CC00EDD2B0FA80FCACF1080CB2EB0C0200FAE6
:1003DC000CF0AABF00EBC25052421843BCBFD04035
:1003EC001843704792F0000F81F4000106BF80F4AF
:1003FC0000000132013BB5E74FEA41037FEA226C72
:10040C0018BF7FEA236C21D092EA030F04D092F03C
:10041C00000F08BF0846704790EA010F1CBF002070
:10042C00704712F07F4F04D1400028BF40F00040CD
:10043C00704712F100723CBF00F50000704700F0ED
:10044C00004343F0FE4040F4000070477FEA226214
:10045C0016BF08467FEA23630146420206BF5FEAE5
:10046C00412390EA010F40F4800070474FF00003E5
:10047C0004E000BF10F0004348BF40425FEA000CAC
:10048C0008BF704743F0964301464FF000001CE054
:10049C0050EA010208BF70474FF000030AE000BFAA
:1004AC0050EA010208BF704711F0004302D54042E8
:1004BC0061EB41015FEA010C02BF8446014600205A
:1004CC0043F0B64308BFA3F18053A3F50003BCFA75
:1004DC008CF2083AA3EBC25310DB01FA02FC634422
:1004EC0000FA02FCC2F12002BCF1004F20FA02F229
:1004FC0043EB020008BF20F00100704702F120021C
:10050C0001FA02FCC2F1200250EA4C0021FA02F27C
:10051C0043EB020008BF20EADC7070474FF0FF0C81
:10052C001CEAD0521EBF1CEAD15392EA0C0F93EA7C
:10053C000C0F6FD01A4480EA010C400218BF5FEA1E
:10054C0041211ED04FF0006343EA501043EA511191
:10055C00A0FB01310CF00040B1F5000F3EBF49008B
:10056C0041EAD3715B0040EA010062F17F02FD2A8F
:10057C001DD8B3F1004F40EBC25008BF20F0010072
:10058C00704790F0000F0CF0004C08BF49024CEA89
:10059C00502040EA51207F3AC2BFD2F1FF0340EA1B
:1005AC00C250704740F400004FF00003013A5DDC8C
:1005BC0012F1190FDCBF00F000407047C2F10002CD
:1005CC00410021FA02F1C2F1200200FA02FC5FEABA
:1005DC00310040F1000053EA4C0308BF20EADC7004
:1005EC00704792F0000F00F0004C02BF400010F476
:1005FC00000F013AF9D040EA0C0093F0000F01F023
:10060C00004C02BF490011F4000F013BF9D041EA44
:10061C000C018FE70CEAD15392EA0C0F18BF93EA46
:10062C000C0F0AD030F0004C18BF31F0004CD8D170
:10063C0080EA010000F00040704790F0000F17BFF7
:10064C0090F0004F084691F0000F91F0004F14D03D
:10065C0092EA0C0F01D142020FD193EA0C0F03D195
:10066C004B0218BF084608D180EA010000F0004098
:10067C0040F0FE4040F40000704740F0FE4040F473
:10068C00400070474FF0FF0C1CEAD0521EBF1CEA12
:10069C00D15392EA0C0F93EA0C0F69D0A2EB030230
:1006AC0080EA010C49024FEA402037D04FF08053CA
:1006BC0043EA111143EA10130CF000408B4238BF8F
:1006CC005B0042F17D024FF4000C8B4224BF5B1A9D
:1006DC0040EA0C00B3EB510F24BFA3EB510340EAEB
:1006EC005C00B3EB910F24BFA3EB910340EA9C0099
:1006FC00B3EBD10F24BFA3EBD10340EADC001B0109
:10070C0018BF5FEA1C1CE0D1FD2A3FF650AF8B42AC
:10071C0040EBC25008BF20F0010070470CF0004CB9
:10072C004CEA50207F32C2BFD2F1FF0340EAC250E4
:10073C00704740F400004FF00003013A37E792F0A5
:10074C00000F00F0004C02BF400010F4000F013A03
:10075C00F9D040EA0C0093F0000F01F0004C02BFFE
:10076C00490011F4000F013BF9D041EA0C0195E767
:10077C000CEAD15392EA0C0F08D142027FF47DAF00
:10078C0093EA0C0F7FF470AF084676E793EA0C0FF0
:10079C0004D14B023FF44CAF08466EE730F0004CEE
:1007AC0018BF31F0004CCAD130F000427FF45CAF7E
:1007BC0031F000437FF43CAF5FE700BF42000ED244
:1007CC00B2F1FE4F0BD34FF09E03B3EB126209D480
:1007DC004FEA002343F0004323FA02F070474FF036
:1007EC000000704712F1610F01D1420202D14FF0AB
:1007FC00FF3070474FF00000704700BF53B94AB943
:10080C00002908BF00281CBF4FF0FF314FF0FF300C
:10081C0000F074B9ADF1080C6DE904CE00F006F8E7
:10082C00DDF804E0DDE9022304B070472DE9F04760
:10083C00089E0D4604468846002B4DD18A429446AC
:10084C0068D9B2FA82F252B101FA02F3C2F1200174
:10085C0020FA01F10CFA02FC41EA030894404FEA39
:10086C001C45210CB8FBF5FE1FFA8CF705FB1E830B
:10087C0041EA03430EFB07F199420BD91CEB03032E
:10088C000EF1FF3080F01E81994240F21B81AEF1D7
:10089C00020E63445B1AA4B2B3FBF5F005FB1033F4
:1008AC0044EA034400FB07F7A7420AD91CEB0404F3
:1008BC0000F1FF3380F00881A74240F205816444C7
:1008CC000238E41B40EA0E4000211EB1D440002344
:1008DC00C6E90043BDE8F0878B4208D9002E00F032
:1008EC00EE800021C6E900050846BDE8F087B3FAA2
:1008FC0083F100294AD1AB4202D3824200F2F98043
:10090C00841A65EB030301209846002EE2D0C6E959
:10091C000048DFE702B9FFDEB2FA82F2002A40F0AB
:10092C009180A1EB0C054FEA1C471FFA8CFE0121AC
:10093C00B5FBF7F307FB1350250C45EA00450EFBFE
:10094C0003F0A84208D91CEB050503F1FF3802D2CD
:10095C00A84200F2CB8043462D1AA4B2B5FBF7F0A7
:10096C0007FB105544EA05440EFB00FEA64508D9CA
:10097C001CEB040400F1FF3502D2A64500F2BB804B
:10098C002846A4EB0E0440EA03409EE7C1F1200781
:10099C008B4022FA07FC4CEA030C20FA07F405FA08
:1009AC0001F31C43FD404FEA1C4900FA01F3B5FB6F
:1009BC00F9F8200C1FFA8CFE09FB185540EA054586
:1009CC0008FB0EF0A84202FA01F20BD91CEB05054C
:1009DC0008F1FF3A80F08880A84240F28580A8F1A7
:1009EC00020865442D1AA4B2B5FBF9F009FB1055A9
:1009FC0044EA054500FB0EFEAE4508D91CEB050587
:100A0C0000F1FF346CD2AE456AD90238654440EA35
:100A1C000840A0FB0294A5EB0E05A542C846A646CD
:100A2C0056D353D05EB1B3EB080265EB0E0505FA55
:100A3C0007F722FA01F3CD401F43C6E900750021E8
:100A4C00BDE8F087C2F1200320FA03F10CFA02FC96
:100A5C0025FA03F395400D434FEA1C471FFA8CFE11
:100A6C00B3FBF7F107FB11302B0C43EA004301FBFE
:100A7C000EF0984204FA02F408D91CEB030301F1BE
:100A8C00FF382FD298422DD9023963441B1AADB2CC
:100A9C00B3FBF7F007FB103345EA034500FB0EF3FD
:100AAC00AB4208D91CEB050500F1FF3816D2AB425E
:100ABC0014D902386544ED1A40EA014138E7314651
:100ACC00304607E78646E5E61846FAE64B45A9D2D6
:100ADC00B9EB020864EB0C0E0138A3E74046EAE7D9
:100AEC00204694E74146D1E7D0467BE7023B65447C
:100AFC0032E7084609E76444023842E7704700BF12
:100B0C0008B5064800F064FF054802F0C7FE022253
:100B1C000449054804F012FB08BD00BF84040024FE
:100B2C00A80400245C040024F40400240268044B90
:100B3C009A4200D07047034A136801331360F9E7F7
:100B4C00001000405804002408B50268044B9A4277
:100B5C0000D008BD4FF40051024801F081F8F8E7CD
:100B6C00001001400008025808B50848084B036003
:100B7C00002303714371436183610123036200F01D
:100B8C006BFB00B908BD00F095F8FBE7600400248E
:100B9C00004C025802680A4B9A4200D0704782B04F
:100BAC00A3F50063D3F8E02042F40022C3F8E02060
:100BBC00D3F8E03003F400230193019B02B070479B
:100BCC00004C025808B50A480A4B036000234360E6
:100BDC008360C3604FF48032026143618361C361FF
:100BEC0000F08EFE00B908BD00F064F8FBE700BF12
:100BFC00840400240068005802680A4B9A4200D012
:100C0C00704782B003F5EE33D3F8F42042F08062E3
:100C1C00C3F8F420D3F8F43003F080630193019B04
:100C2C0002B070470068005830B589B000240394B6
:100C3C0004940594069407941C4BD3F8E02042F0DE
:100C4C000402C3F8E020D3F8E02002F00402009282
:100C5C00009AD3F8E02042F08002C3F8E020D3F8E9
:100C6C00E02002F080020192019AD3F8E02042F0D9
:100C7C000102C3F8E020D3F8E03003F00103029343
:100C8C00029B0B4D22464FF40051284600F0E2FF28
:100C9C004FF400530393012304930594069403A982
:100CAC00284600F0C9FE09B030BD00BF0044025810
:100CBC000008025872B6FEE700B59DB04C22002128
:100CCC0009A804F017FB2022002101A804F012FB54
:100CDC00022000F0CFFF00230093214B9A6922F4ED
:100CEC0040429A619B6903F440430093009B1C4B68
:100CFC009B6913F4005FFAD00223099301210C9134
:100D0C0040220D9212930022139204201490222060
:100D1C0015901691179318930C2319931A924FF45C
:100D2C0040631B9309A800F0CFFFA8B93F230193A0
:100D3C00032102910023039308230493402305937A
:100D4C0006934FF480620792089301A801F0BEFB52
:100D5C0020B91DB05DF804FBFFF7ACFFFFF7AAFF4D
:100D6C000048025808B500F0B9F9FFF7A5FFFFF7E6
:100D7C005BFFFFF7F9FEFFF725FF00F087F800F0A7
:100D8C00D3F8FFF7BDFEFEE782B0074BD3F8F42093
:100D9C0042F00202C3F8F420D3F8F43003F002035B
:100DAC000193019B02B0704700440258FEE7FEE736
:100DBC00FEE7FEE7FEE770477047704708B500F0A6
:100DCC00BBF908BD10B5054C204602F0F1FF02221C
:100DDC000349204604F0B2F910BD00BFF40400240E
:100DEC005C04002408B5024802F0ACFD08BD00BF4D
:100DFC00A80400241E4B1B6803F00F03062B06D817
:100E0C001B4A136823F00F0343F007031360194BBD
:100E1C001A6842F001021A6000221A611968164A17
:100E2C000A401A60124B1B6813F0080F06D0104AC8
:100E3C00136823F00F0343F0070313600D4B0022DC
:100E4C009A61DA611A620D4999620D49D9620D49AC
:100E5C0019635A639963DA6319645A64196821F443
:100E6C00802119601A66084B43F2D2021A6070474F
:100E7C0000200052004402587FEDF6EA0002020204
:100E8C000000FF01800201010040005200B585B056
:100E9C0000230193029303930F48104A02604FF40E
:100EAC0089724260836040F2E733C36080238361C0
:100EBC0002F0A6FE50B900230193039301A9064842
:100ECC0002F0CEFE28B905B05DF804FBFFF7F2FE88
:100EDC00F1E7FFF7EFFEF6E7A8040024001000404E
:100EEC0002680F4B9A4200D0704700B583B00D4B8F
:100EFC00D3F8E82042F01002C3F8E820D3F8E83029
:100F0C0003F010030193019B00220121362000F015
:100F1C004BF9362000F07EF903B05DF804FB00BFFE
:100F2C00001000400044025808B51748174B0360E6
:100F3C004FF4E133436000238360C36003610C22F0
:100F4C0042618361C36103624362836204F025F8EA
:100F5C0070B900210C4804F05FF960B900210A480F
:100F6C0004F07FF950B9084804F037F948B908BDC6
:100F7C00FFF7A0FEEDE7FFF79DFEEFE7FFF79AFE08
:100F8C00F1E7FFF797FEF2E7F404002400100140AC
:100F9C0010B5B6B0044600213191329133913491A1
:100FAC003591B82202A804F0A5F922681F4B9A4289
:100FBC0001D036B010BD01220023CDE9022302A8D6
:100FCC0001F020FD78BB1A4BD3F8F02042F0100250
:100FDC00C3F8F020D3F8F02002F010020092009A2F
:100FEC00D3F8E02042F00102C3F8E020D3F8E0305F
:100FFC0003F001030193019B4FF4C063319302236F
:10100C0032930024339434940723359331A909483F
:10101C0000F012FD22462146252000F0C5F82520BF
:10102C0000F0F8F8C5E7FFF745FECCE700100140EB
:10103C000044025800000258DFF834D0FFF7DAFE03
:10104C000C480D490D4A002302E0D458C450043317
:10105C00C4188C42F9D30A4A0A4C002301E01360ED
:10106C000432A242FBD304F021F9FFF77BFE704758
:10107C0000000524000000243C040024EC5400086B
:10108C003C04002490050024FEE70000104B1B7864
:10109C000BB90120704710B504464FF47A70B0FBC1
:1010AC00F3F30C4A1068B0FBF3F000F0C1F868B928
:1010BC000F2C01D901200AE0002221464FF0FF300D
:1010CC0000F072F8044B1C60002000E0012010BD01
:1010DC0008000024000000240C00002410B503209C
:1010EC0000F050F801F0E6F80F498B69C3F30323C5
:1010FC000E4AD35C03F01F03D8408B6903F00F0337
:10110C00D35C03F01F0320FA03F3094A1360094B65
:10111C0018600F20FFF7BAFF10B10124204610BD54
:10112C000446FFF731FEF9E7004402589C540008CE
:10113C000400002400000024034B1B78034A1168B0
:10114C000B441360704700BF08000024880500247E
:10115C00014B1868704700BF8805002438B5044659
:10116C00FFF7F6FF0546B4F1FF3F02D0044B1B78A6
:10117C001C44FFF7EDFF401BA042FAD338BD00BF63
:10118C00080000240649CB6823F4E0631B041B0C05
:10119C00000200F4E0600343024A1A43CA6070473D
:1011AC0000ED00E00000FA0500B5174BDB68C3F357
:1011BC000223C3F1070CBCF1040F28BF4FF0040C41
:1011CC0003F1040EBEF1060F14D9033B4FF0FF3EA2
:1011DC000EFA0CFC21EA0C0199400EFA03F322EAF8
:1011EC0003031943002807DB0901C9B2074B195443
:1011FC005DF804FB0023E9E700F00F000901C9B218
:10120C00034B1954F4E700BF00ED00E000E400E0EC
:10121C0014ED00E0002807DB00F01F024009012359
:10122C009340024A42F82030704700BF00E100E0D2
:10123C000138B0F1807F0BD24FF0E0235861054AA2
:10124C00F02182F823100020986107221A61704760
:10125C000120704700ED00E0002838D010B504469E
:10126C00437F1BB30223637723791BBB2368194A83
:10127C005A612268936823F018039360637913BB57
:10128C0023684FF0FF321A612268936823F06003E1
:10129C0061690B4393602268936823F08003A16912
:1012AC000B43936001236377002010BD0377FFF796
:1012BC0071FCD7E7E268A168204600F00DF8002821
:1012CC00DCD00120F1E7236822691A61DCE70120F8
:1012DC00704700BFB71DC10411F0010F30D010B41E
:1012EC001F231C46013B34B103F01F0C21FA0CFCEC
:1012FC001CF0010FF5D0182A24D8DFE802F00F23D8
:10130C002323232323231D232323232323231923B1
:10131C002323232323230D00062B16D8036859619E
:10132C0001688B6823F018031A438A6000200AE0D6
:10133C00072BF3D9012006E00F2BEFD9012002E097
:10134C0001207047012010BC70470120FBE7000012
:10135C0070B50446FFF7FCFE002C00F091810546A9
:10136C0094F83530DBB2022B06D080236365002362
:10137C0084F83430012070BD23688C498C4A934228
:10138C0018BF8B4230D0183293422DD01832934272
:10139C002AD01832934227D01832934224D01832D4
:1013AC00934221D0183293421ED002F556729342CA
:1013BC001AD01832934217D01832934214D01832E4
:1013CC00934211D0183293420ED0183293420BD064
:1013DC001832934208D01832934205D01A6822F082
:1013EC000E021A60266809E01A6822F01E021A60C2
:1013FC002268536923F080035361266823686B4984
:10140C006B4A934218BF8B4242D0183293423FD062
:10141C00183293423CD01832934239D0183293424E
:10142C0036D01832934233D01832934230D002F572
:10143C00567293422CD01832934229D018329342D0
:10144C0026D01832934223D01832934220D018322F
:10145C0093421DD0183293421AD01832934217D0AF
:10146C00544A934214D01432934211D01432934202
:10147C000ED0143293420BD01432934208D0143253
:10148C00934205D01432934202D01432934204D1C9
:10149C00226E136823F48073136023684349444A13
:1014AC00934218BF8B422FD0183293422CD0183253
:1014BC00934229D01832934226D01832934223D02B
:1014CC001832934220D0183293421DD002F5567236
:1014DC00934219D01832934216D01832934213D03B
:1014EC001832934210D0183293420DD018329342D6
:1014FC000AD01832934207D01832934204D01A689B
:10150C0022F001021A6003E01A6822F001021A604C
:10151C00336813F0010F0ED0FFF71AFE431B052B97
:10152C00F6D920236365032384F83530002384F82F
:10153C00343001201FE723681C491D4A934218BF11
:10154C008B4239D01832934236D01832934233D072
:10155C001832934230D0183293422DD01832934225
:10156C002AD01832934227D002F55672934223D0D8
:10157C001832934220D0183293421DD01832934225
:10158C001AD01832934217D01832934214D0183212
:10159C00934211D0183293420ED0A16DE36D03F03B
:1015AC001F02012393404B600DE000BF100002406E
:1015BC002800024008540258A16DE36D03F01F028D
:1015CC003F2393408B6023682E492F4A934218BFC8
:1015DC008B4242D0183293423FD0183293423CD0C7
:1015EC001832934239D01832934236D01832934283
:1015FC0033D01832934230D002F5567293422CD02D
:10160C001832934229D01832934226D01832934282
:10161C0023D01832934220D0183293421DD0183266
:10162C0093421AD01832934217D0184A934214D0CE
:10163C001432934211D0143293420ED0143293428E
:10164C000BD01432934208D01432934205D014328A
:10165C00934202D0143293420BD1636EA26E5A6045
:10166C00E36E33B11A6822F480721A60236F626FD2
:10167C005A60012384F83530002084F834007AE66F
:10168C00012078E61000024028000240085402585D
:10169C00002800F0298108B5024690F83530DBB2FD
:1016AC00022B03D080234365012008BD03689048BA
:1016BC0090498B4218BF83420CBF0121002166D098
:1016CC003030834263D01830834260D0183083426C
:1016DC005DD0183083425AD01830834257D018301E
:1016EC00834254D000F55670834250D01830834258
:1016FC004DD0183083424AD01830834247D018302E
:10170C00834244D01830834241D0183083423ED0BB
:10171C00183083423BD0196821F00E011960136810
:10172C00A0F5956073498B4218BF83426AD0724909
:10173C008B4267D018318B4264D018318B4261D008
:10174C0018318B425ED018318B425BD018318B42F2
:10175C0058D001F556718B4254D018318B4251D070
:10176C0018318B424ED018318B424BD018318B42F2
:10177C0048D018318B4245D018318B4242D01831A9
:10178C008B423FD0196821F0010119603EE0042022
:10179C0082F8350081BB584A93422DD018329342BF
:1017AC002AD01832934227D01832934224D01832C0
:1017BC00934221D0183293421ED002F556729342B6
:1017CC001AD01832934217D01832934214D01832D0
:1017DC00934211D0183293420ED0183293420BD050
:1017EC001832934208D01832934205D01A6822F06E
:1017FC0001021A60002058E71A6822F001021A60F0
:10180C00002052E7196821F001011960136838486B
:10181C0038498B4218BF834242D018318B423FD09B
:10182C0018318B423CD018318B4239D018318B4255
:10183C0036D018318B4233D018318B4230D001F571
:10184C0056718B422CD018318B4229D018318B42D7
:10185C0026D018318B4223D018318B4220D018312E
:10186C008B421DD018318B421AD018318B4217D0B5
:10187C0022498B4214D014318B4211D014318B423B
:10188C000ED014318B420BD014318B4208D0143152
:10189C008B4205D014318B4202D014318B4217D1BC
:1018AC00116E0B6823F480730B60906DD36D03F095
:1018BC001F0101238B404360536E916E5960D36EB0
:1018CC0033B1196821F480711960136F516F59602D
:1018DC00012382F83530002382F83430136D2BB19C
:1018EC00104698470020E0E6012070470020DCE617
:1018FC0010000240280002404000024008540258E8
:10190C0000285AD010B5044690F82130002B42D054
:10191C00022384F8213023681A69002A4FD09A6870
:10192C00002A4ED06268002A38D11A6822F40012BC
:10193C001A60A368B3F5801F39D02268136823F4AA
:10194C00801313602268136823F0FE43616943EA35
:10195C00016313602268136823F4702321690B431D
:10196C0013602268136823F47063E1680B431360FF
:10197C00226853699BB2A16943EA0143536122680F
:10198C005169124B0B40E1690B435361012384F8FD
:10199C002130002014E0FFF72FF9B9E7A268B2F567
:1019AC00801F10D11A6842F400121A60C1E7226835
:1019BC00136843F480131360C4E7012070470120BF
:1019CC0010BD0120FCE70120FAE700BF0000FFFF7B
:1019DC0080B338B5044690F82130DBB2012B01D02E
:1019EC00022038BD022380F821300268136843F0CE
:1019FC0001031360FFF7ACFB054623681A6A12F467
:101A0C00004F06D1FFF7A4FB401B0128F5D903209A
:101A1C00E7E71A6812F4706F04D0012384F82130C0
:101A2C000020DEE71A6842F010021A600520FFF76A
:101A3C0095FBF2E70120704770B582B000236EE091
:101A4C0085685E000324B44025EA0405CC68B440E4
:101A5C002C438460446824EA0C0C4C68C4F30014D6
:101A6C009C4044EA0C0444606CE0DD08083550F8F6
:101A7C00256003F007044FEA840C0F2404FA0CF4DD
:101A8C0026EA040E0C6904FA0CF444EA0E0440F83D
:101A9C0025406FE0092400E0002404FA0EF42C43E6
:101AAC000CF1020C684D45F82C404FF0B044256801
:101ABC00D44325EA0206D1F804C01CF4801F01D0DF
:101ACC0042EA05064FF0B0452E606D6804EA050643
:101ADC00D1F804C01CF4001F01D042EA05064FF0F7
:101AEC00B0456E60D5F8845004EA0506D1F804C000
:101AFC001CF4003F01D042EA05064FF0B045C5F892
:101B0C008460D5F880502C404E6816F4803F01D08C
:101B1C0042EA05044FF0B042C2F8804001330A6833
:101B2C0032FA03F400F08D804FF0010C0CFA03FC38
:101B3C001CEA0202F2D04C6804F00304013C012CB4
:101B4C007FF67EAF4C6804F00304032C0CD0C46801
:101B5C005D004FF0030C0CFA05FC24EA0C0C8C68AD
:101B6C00AC4044EA0C04C4604C6804F00304022C3E
:101B7C003FF47BAF04684FEA430E4FF0030C0CFAB2
:101B8C000EFC24EA0C0C4C6804F0030404FA0EF46A
:101B9C0044EA0C0404604C6814F4403FBED02B4C57
:101BAC00D4F8F45045F00205C4F8F450D4F8F440DD
:101BBC0004F002040194019C4FEA930C0CF1020511
:101BCC00214C54F8255003F003044FEA840E0F24E3
:101BDC0004FA0EF425EA04051D4CA0423FF45CAF58
:101BEC0004F58064A0421ED004F58064A0421CD091
:101BFC0004F58064A0421AD004F58064A04218D089
:101C0C0004F58064A04216D004F58064A04214D080
:101C1C0004F58064A04212D004F50064A0423FF4A5
:101C2C0039AF0A2439E7012437E7022435E70324C6
:101C3C0033E7042431E705242FE706242DE7072496
:101C4C002BE702B070BD00BF0004005800440258DE
:101C5C00000002580AB18161704709048161704724
:101C6C00436901EA030221EA030141EA024181616D
:101C7C0070470000134BDB6813F0040F07D1114BB6
:101C8C00DB6803F0070383421AD00120704710B5BC
:101C9C000C4AD36823F007031843D060FFF758FAB7
:101CAC000446084B5B6813F4005F07D1FFF750FA4A
:101CBC00001BB0F57A7FF4D9012000E0002010BDA4
:101CCC000020704700480258002800F0D78238B531
:101CDC000446036813F0010F25D0A04A136903F0E2
:101CEC003803926A102B15D0182B0FD06368B3F5FC
:101CFC00803F3FD0002B53D1984B1A6822F480328E
:101D0C001A601A6822F480221A6038E002F003028A
:101D1C00022AEBD1914B1B6813F4003F03D063688C
:101D2C00002B00F0AD82236813F0020F00F08880C6
:101D3C008A4A1369926A13F038035AD0182B55D07B
:101D4C00E368002B00F0A98084490A6822F019028C
:101D5C0013430B60FFF7FCF90546804B1B6813F02F
:101D6C00040F40F09180FFF7F3F9401B0228F4D9DF
:101D7C0003208CE2794A136843F480331360636860
:101D8C002BB3FFF7E5F90546744B1B6813F4003FC2
:101D9C00C9D1FFF7DDF9401B6428F5D9032076E2A1
:101DAC00B3F5A02F09D06D4B1A6822F480321A605B
:101DBC001A6822F480221A60E1E7684B1A6842F430
:101DCC0080221A601A6842F480321A60D7E7FFF753
:101DDC00BFF90546614B1B6813F4003FA3D0FFF716
:101DEC00B7F9401B6428F5D9032050E212F0030F19
:101DFC00A6D15A4B1B6813F0040F03D0E368002BD9
:101E0C0000F04082554A136823F01903E1680B4334
:101E1C001360FFF79DF90546504B1B6813F0040F38
:101E2C0006D1FFF795F9401B0228F5D903202EE2C5
:101E3C004A4A536823F0FE43216943EA0163536025
:101E4C00236813F0100F51D0444A136903F0380380
:101E5C00926A082B39D0182B33D0E369002B69D048
:101E6C003E4A136843F080031360FFF771F905468F
:101E7C003A4B1B6813F4807F53D1FFF769F9401B71
:101E8C000228F5D9032002E2344A536823F0FE43BA
:101E9C00216943EA01635360D2E7304A136823F0A7
:101EAC0001031360FFF754F905462C4B1B6813F024
:101EBC00040FC5D0FFF74CF9401B0228F5D90320BD
:101ECC00E5E102F00302012AC7D1244B1B6813F48D
:101EDC00807F03D0E369802B40F0D6811F4AD36802
:101EEC0023F07C53216A43EA0163D360236813F027
:101EFC00080F49D06369002B32D0184A536F43F056
:101F0C0001035367FFF724F90546144B5B6F13F07D
:101F1C00020F39D1FFF71CF9401B0228F5D9032019
:101F2C00B5E10E4AD36823F07C53216A43EA01637E
:101F3C00D360DBE7094A136823F080031360FFF7D3
:101F4C0007F90546054B1B6813F4807FCED0FFF7CD
:101F5C00FFF8401B0228F5D9032098E100440258F1
:101F6C009D4A536F23F001035367FFF7F1F80546C1
:101F7C00994B5B6F13F0020F06D0FFF7E9F8401B8B
:101F8C000228F5D9032082E1236813F0200F29D011
:101F9C00A3699BB1904A136843F480531360FFF715
:101FAC00D7F805468C4B1B6813F4005F1AD1FFF76A
:101FBC00CFF8401B0228F5D9032068E1864A136844
:101FCC0023F480531360FFF7C3F80546824B1B685C
:101FDC0013F4005F06D0FFF7BBF8401B0228F5D9BD
:101FEC00032054E1236813F0040F21D1636A002B02
:101FFC0000F04C81784A126902F03802182A00F07D
:10200C00F380022B75D0744A136823F0807313602D
:10201C00FFF79EF80446704B1B6813F0007F00F02E
:10202C00D880FFF795F8001B0228F4D903202EE185
:10203C006A4A136843F480731360FFF789F8054606
:10204C00664B1B6813F4807F06D1FFF781F8401BA9
:10205C006428F5D903201AE1A368012B0AD00BBB25
:10206C005D4B1A6F22F001021A671A6F22F00402FC
:10207C001A6704E0584A136F43F001031367A3680F
:10208C0033B3FFF765F80546534B1B6F13F0020F84
:10209C00ACD1FFF75DF8401B41F288339842F3D97D
:1020AC000320F4E0052B09D04B4B1A6F22F00102F0
:1020BC001A671A6F22F004021A67E0E7464B1A6F90
:1020CC0042F004021A671A6F42F001021A67D6E74F
:1020DC00FFF73EF80546404B1B6F13F0020F85D0FF
:1020EC00FFF736F8401B41F288339842F3D90320AE
:1020FC00CDE0394A136823F080731360FFF728F89A
:10210C000546354B1B6813F0007F06D0FFF720F80F
:10211C00401B0228F5D90320B9E02F4B996A304AAD
:10212C000A40A16AE06A41EA00110A439A62226BF2
:10213C00013AC2F30802616B0139490289B20A43C0
:10214C00A16B0139090401F4FE010A43E16B013969
:10215C00090601F0FE410A431A63DA6A22F0010211
:10216C00DA62596B1F4A0A40A16C42EAC1025A63F7
:10217C00DA6A22F00C02216C0A43DA62DA6A22F083
:10218C000202616C0A43DA62DA6A42F48032DA6281
:10219C00DA6A42F40032DA62DA6A42F48022DA62F3
:1021AC00DA6A42F00102DA621A6842F080721A604E
:1021BC00FEF7CEFF0446084B1B6813F0007F06D1D8
:1021CC00FEF7C6FF001B0228F5D903205FE00020B4
:1021DC005DE000205BE000BF00440258004802585C
:1021EC000CFCFFFF0700FFFF30498A6A086B012BCC
:1021FC004ED002F00303A16A8B424BD1C2F30512FD
:10220C00E36A9A4248D1C0F30802236B013B9A421D
:10221C0044D1C0F34622636B013B9A4240D1C0F3D8
:10222C000642A36B013B9A423CD1C0F30660E36BC0
:10223C00013B984238D11D4B5B6BC3F3CC03A26CB2
:10224C009A4201D1002022E0184AD36A23F00103FC
:10225C00D362FEF77DFF0546FEF77AFFA842FBD05E
:10226C00124A516B124B0B40A16C43EAC1035363EE
:10227C00D36A43F00103D362002008E001207047C9
:10228C00012004E0012002E0012000E0002038BD24
:10229C000120FCE70120FAE70120F8E70120F6E72E
:1022AC000120F4E70120F2E70120F0E70044025896
:1022BC000700FFFFF8B57E4B1B6903F03803102BAA
:1022CC0000F0F280182B10D013B17A4C2046F8BDD8
:1022DC00774B1B6813F0200F00F0E880744B1868E4
:1022EC00C0F3C100744CC440F0E7714B9D6A05F01B
:1022FC0003059C6AC4F30514D86A00F001005B6BFB
:10230C00C3F3CC0303FB00F0FEF7B0F80646002C39
:10231C00DCD0012D76D0022D00F0A4800DB3204628
:10232C00FEF7A4F801466548FEF7ACF90446604B8D
:10233C00186BC0F30800FEF799F805464FF064518E
:10234C003046FEF7EBF801462846FDF7DFFF4FF06D
:10235C007E51FDF7DBFF01462046FEF7DFF8044611
:10236C0071E0534B1B6813F0200F29D0504F3B6882
:10237C00C3F3C1035048D840FEF778F80546204611
:10238C00FEF774F801462846FEF77CF90446386BD4
:10239C00C0F30800FEF76AF805464FF0645130466A
:1023AC00FEF7BCF801462846FDF7B0FF4FF07E5112
:1023BC00FDF7ACFF01462046FEF7B0F8044642E0BC
:1023CC002046FEF753F801463D48FEF75BF90446FC
:1023DC00374B186BC0F30800FEF748F805464FF072
:1023EC0064513046FEF79AF801462846FDF78EFFF9
:1023FC004FF07E51FDF78AFF01462046FEF78EF81E
:10240C00044620E02046FEF731F801462B48FEF743
:10241C0039F90446264B186BC0F30800FEF726F872
:10242C0005464FF064513046FEF778F801462846D1
:10243C00FDF76CFF4FF07E51FDF768FF014620461B
:10244C00FEF76CF804461A4B1B6BC3F34623581C5F
:10245C00FEF70CF801462046FEF714F9FEF7AEF92C
:10246C00044633E72046FEF701F801461548FEF70F
:10247C0009F904460E4B186BC0F30800FDF7F6FF84
:10248C0005464FF064513046FEF748F801462846A1
:10249C00FDF73CFF4FF07E51FDF738FF014620461B
:1024AC00FEF73CF80446CEE7074C0FE7024C0DE76D
:1024BC000044025800093D000090D0030024744AE7
:1024CC000024744C20BCBE4B40787D01002800F0E9
:1024DC00328170B50D4604469B4B1B6803F00F030D
:1024EC008B420BD2984A136823F00F030B431360F3
:1024FC00136803F00F038B4240F01F81236813F025
:10250C00040F0CD02269914B9B6903F070039A4223
:10251C0005D98E498B6923F070031A438A612368AD
:10252C0013F0080F0CD06269884BDB6903F0700361
:10253C009A4205D98549CB6923F070031A43CA61C5
:10254C00236813F0100F0CD0A269804BDB6903F4E5
:10255C00E0639A4205D97D49CB6923F4E0631A43C1
:10256C00CA61236813F0200F0CD0E269774B1B6A09
:10257C0003F070039A4205D974490B6A23F0700377
:10258C001A430A62236813F0020F0CD0E2686F4BF7
:10259C009B6903F00F039A4205D96C498B6923F0B0
:1025AC000F031A438A61236813F0010F41D0674A65
:1025BC00936923F47063A1680B4393616368022BE6
:1025CC000AD0032B27D0012B2CD0604A126812F0B2
:1025DC00040F06D10120ADE0126812F4003F00F0A8
:1025EC00AE805A490A6922F0070213430B61FEF7C9
:1025FC00AFFD0646554B1B6903F038036268B3EB1D
:10260C00C20F16D0FEF7A4FD801B41F2883398420E
:10261C00F0D903208EE04D4A126812F0007FE0D111
:10262C00012087E0494A126812F4807FD9D1012039
:10263C0080E0236813F0020F0CD0E268434B9B69D7
:10264C0003F00F039A4205D240498B6923F00F0324
:10265C001A438A613C4B1B6803F00F03AB420AD947
:10266C00394A136823F00F032B431360136803F0EC
:10267C000F03AB4265D1236813F0040F0CD0226911
:10268C00324B9B6903F070039A4205D22F498B6938
:10269C0023F070031A438A61236813F0080F0CD0DF
:1026AC0062692A4BDB6903F070039A4205D2274911
:1026BC00CB6923F070031A43CA61236813F0100F1F
:1026CC000CD0A269214BDB6903F4E0639A4205D27A
:1026DC001E49CB6923F4E0631A43CA61236813F0E3
:1026EC00200F0CD0E269194B1B6A03F070039A425D
:1026FC0005D216490B6A23F070031A430A62FFF7DE
:10270C00D9FD12498B69C3F30323114AD35C03F03F
:10271C001F03D8408B6903F00F03D35C03F01F0336
:10272C0020FA03F30B4A13600B4B18600B4B186821
:10273C00FEF7ACFC70BD012070470120FAE70120C8
:10274C00F8E70120F6E700BF0020005200440258D1
:10275C009C54000804000024000000240C000024F9
:10276C0008B5FFF7A7FD0B4A9369C3F303230A4986
:10277C00CB5C03F01F0320FA03F3926902F00F0203
:10278C00885C00F01F0023FA00F0044A1060044A31
:10279C00136008BD004402589C5400080400002437
:1027AC000000002408B5FFF7DBFF054BDB69C3F322
:1027BC000213044AD35C03F01F03D84008BD00BFCA
:1027CC00004402589C54000808B5FFF7C9FF054B9C
:1027DC00DB69C3F30223044AD35C03F01F03D84024
:1027EC0008BD00BF004402589C540008404B9B6A33
:1027FC0003F00303032B79D070B505460E463C4A13
:10280C00136823F080631360FEF7A2FC0446384B78
:10281C001B6813F0006F06D0FEF79AFC031B022B0B
:10282C00F5D9032070BD324B9A6A22F47C322968A8
:10283C0042EA01329A626A68013AC2F30802A96854
:10284C000139490289B20A43E9680139090401F4E2
:10285C00FE010A4329690139090601F0FE410A43C8
:10286C009A63DA6A22F0C00269690A43DA62DA6AA8
:10287C0022F02002A9690A43DA62DA6A22F0100215
:10288C00DA62D96B1B4A0A40E96942EAC102DA638F
:10289C00DA6A42F01002DA62C6B91A46DB6A43F40D
:1028AC000023D362124A136843F080631360FEF76F
:1028BC004FFC04460E4B1B6813F0006F14D1FEF74F
:1028CC0047FC001B0228F5D90320ABE7012E05D0ED
:1028DC00074AD36A43F40013D362E3E7044AD36A8A
:1028EC0043F48013D362DDE700209BE7012070479F
:1028FC00004402580700FFFF404B9B6A03F00303A0
:10290C00032B79D070B505460E463C4A136823F06C
:10291C0080531360FEF71CFC0446384B1B6813F005
:10292C00005F06D0FEF714FC031B022BF5D9032025
:10293C0070BD324B9A6A22F07C72296842EA0152CD
:10294C009A626A68013AC2F30802A968013949021D
:10295C0089B20A43E9680139090401F4FE010A430A
:10296C0029690139090601F0FE410A431A64DA6A41
:10297C0022F4406269690A43DA62DA6A22F400726C
:10298C00A9690A43DA62DA6A22F48072DA62596C53
:10299C001B4A0A40E96942EAC1025A64DA6A42F403
:1029AC008072DA62C6B91A46DB6A43F48003D362DA
:1029BC00124A136843F080531360FEF7C9FB0446B8
:1029CC000E4B1B6813F0005F14D1FEF7C1FB001B0C
:1029DC000228F5D90320ABE7012E05D0074AD36AAC
:1029EC0043F08073D362E3E7044AD36A43F40003F1
:1029FC00D362DDE700209BE70120704700440258BA
:102A0C000700FFFFF8B50446036813F0006F30D0E1
:102A1C00436EB3F5001F26D00ED8EBB1B3F5801F73
:102A2C0007D102210830FFF7E1FE054645B12E46DD
:102A3C0021E0012635461EE0B3F5401F09D10025E3
:102A4C009F4A136D23F44013616E0B4313650026EC
:102A5C0011E0012635460EE0994AD36A43F400335F
:102A6C00D3620025ECE702212830FFF745FF05462D
:102A7C00DCE700263546236813F4807F27D0A36D4E
:102A8C00042B20D8DFE803F00311180808008C4A47
:102A9C00D36A43F40033D362C5B9894A136D23F06A
:102AAC000703A16D0B43136511E0002104F108002D
:102ABC00FFF79CFE0546EFE7002104F12800FFF725
:102ACC001BFF0546E8E70126354600E02E46236845
:102ADC0013F4806F22D0D4F8A430B3F5800F3FD01C
:102AEC000DD8BBB3B3F5001F06D1002104F10800CB
:102AFC00FFF77CFE054608E0012635460EE0B3F5EF
:102B0C00000F02D0B3F5200F1ED185BB6C4A936D1C
:102B1C0023F46003D4F8A4100B439365236813F4D7
:102B2C00006F39D0D4F8A830B3F1007F5AD023D835
:102B3C00002B51D0B3F1807F1BD1002104F1080090
:102B4C00FFF754FE05461DE0B3F5C00FDDD001269E
:102B5C003546E3E75A4AD36A43F40033D362D4E7E9
:102B6C00002104F12800FFF7C7FE0546CDE72E46ED
:102B7C00D4E7012635460FE0B3F1806F02D0B3F1F4
:102B8C00A06F23D1002D34D14D4A936D23F0E06317
:102B9C00D4F8A8100B439365236813F0007F31D051
:102BAC00E36C202B42D029D833B1102B23D1444ACB
:102BBC00D36A43F40033D362002D3ED1404AD36C28
:102BCC0023F03003E16C0B43D3641BE0B3F1407F83
:102BDC00D8D001263546DFE7394AD36A43F40033AF
:102BEC00D362CFE7002104F12800FFF785FE0546EC
:102BFC00C8E72E46D0E70126354603E0302BDBD064
:102C0C0001263546236813F4805F3BD0E36DB3F5A2
:102C1C00005F2FD016D83BB3B3F5805F0FD10021E6
:102C2C0004F10800FFF7E2FD054611E0022104F172
:102C3C000800FFF7DBFD0546BEE72E46E2E701265E
:102C4C0035461FE0B3F5405F02D0B3F5804F08D195
:102C5C00BDB91B4A136D23F4E043E16D0B431365BF
:102C6C0010E0012635460DE0154AD36A43F40033D3
:102C7C00D362EDE7002104F12800FFF73DFE054685
:102C8C00E6E72E46236813F4005F29D0236EB3F5D4
:102C9C00003F44D019D843B1B3F5803F12D1012184
:102CAC0004F10800FFF7A2FD0546002D3ED1044AB1
:102CBC00136D23F4E023216E0B43136510E000BF6A
:102CCC0000440258012635460AE0B3F5802FECD0BB
:102CDC00B3F5A02FE9D0B3F5403FE6D00126354639
:102CEC00236813F4804F31D0D4F8AC30B3F1005FCB
:102CFC0045D020D843B1B3F1805F19D1012104F143
:102D0C000800FFF773FD0546002D3FD18F4A936DE8
:102D1C0023F0E043D4F8AC100B43936516E001218B
:102D2C0004F12800FFF7E8FD0546BEE72E46D7E77D
:102D3C00012635460AE0B3F1804FE5D0B3F1A04F40
:102D4C00E2D0B3F1405FDFD001263546236813F49F
:102D5C00004F09D0E36EB3F1805F19D0B3F1005F7F
:102D6C0024D0D3B101263546236813F0807F33D0AD
:102D7C00A36C032B5BD8DFE803F027225327012138
:102D8C0004F12800FFF7B8FD0546BDE72E46DDE748
:102D9C006E4AD36A43F40033D36275B96B4A136D30
:102DAC0023F04053E16E0B431365DDE7012104F181
:102DBC000800FFF71BFD0546EFE72E46D4E7634AF4
:102DCC00D36A43F40033D362A5BB604AD36C23F0BF
:102DDC000303A16C0B43D364236813F4800F2BD132
:102DEC00236813F0010F00F0A380A36F282B00F2CF
:102DFC009D80DFE803F08B9B9B9B9B9B9B9B859B08
:102E0C009B9B9B9B9B9B949B9B9B9B9B9B9B8B9B1D
:102E1C009B9B9B9B9B9B8B9B9B9B9B9B9B9B8B00B1
:102E2C00022104F10800FFF7E1FC0546CCE701267E
:102E3C003546D1E72E46CFE7454A136843F48073F5
:102E4C001360FEF785F90746414B1B6813F4807F2E
:102E5C0005D1FEF77DF9C01B6428F5D90325002D9B
:102E6C004AD13A4B1B6FD4F8B020534013F4407F37
:102E7C000CD0364B1A6F22F44072196F41F480312A
:102E8C001967196F21F4803119671A67D4F8B030BB
:102E9C00B3F5807F15D08DBBD4F8B03003F44072FD
:102EAC00B2F5407F1ED0294A136923F47C53136179
:102EBC0026490B6FD4F8B020C2F30B0213430B67F7
:102ECC008EE7FEF745F90746204B1B6F13F0020FF8
:102EDC00E1D1FEF73DF9C01B41F288339842F3D99A
:102EEC000325D8E71948026922F47C52194901EAF2
:102EFC00131313430361DBE72E4671E72E466FE78E
:102F0C00012104F10800FFF771FC0546E5B90F4AF1
:102F1C00536D23F03803A16F0B43536508E0012177
:102F2C0004F12800FFF7E8FC0546EFE701263546DB
:102F3C00236813F0020F1DD0636F052B2ED8DFE82A
:102F4C0003F0110B261111112E46F1E70044025823
:102F5C0000480258CFFFFF00012104F10800FFF7E1
:102F6C0045FC0546EDB9A94A536D23F00703616F83
:102F7C000B435365236813F0040F23D0D4F890301F
:102F8C00052B45D8DFE803F0150F3D15151501216C
:102F9C0004F12800FFF7B0FC0546E3E701263546AF
:102FAC00E8E72E46E6E7012104F10800FFF71EFCD6
:102FBC00054685BB954A936D23F00703D4F8901012
:102FCC000B439365236813F0200F34D0D4F88C3066
:102FDC00B3F1005F4ED023D843B1B3F1805F1CD165
:102FEC00002104F10800FFF701FC0546002D48D133
:102FFC00864A536D23F0E043D4F88C100B43536591
:10300C0019E0012104F12800FFF776FC0546D0E712
:10301C0001263546D6E72E46D4E7012635460AE08A
:10302C00B3F1804FE2D0B3F1A04FDFD0B3F1405FEA
:10303C00DCD001263546236813F0400F31D0D4F88C
:10304C009830B3F5006F4DD020D843B1B3F5806FF5
:10305C0019D1002104F10800FFF7C8FB0546002D2B
:10306C0047D16A4A936D23F4E053D4F898100B437C
:10307C00936516E0022104F12800FFF73DFC05469C
:10308C00B4E72E46D7E7012635460AE0B3F5805F54
:10309C00E5D0B3F5A05FE2D0B3F5406FDFD00126E9
:1030AC003546236813F0800F33D0D4F89C30B3F539
:1030BC00804F00F0A18021D843B1B3F5005F1AD145
:1030CC00002104F10800FFF791FB0546002D40F0AC
:1030DC009A804E4A936D23F46043D4F89C100B43B2
:1030EC00936516E0022104F12800FFF705FC054664
:1030FC00B5E72E46D5E7012635460AE0B3F5004F75
:10310C00E4D0B3F5204FE1D0B3F5C04FDED00126AB
:10311C003546236813F0080F0CD0D4F88030B3F583
:10312C00805F75D0394A536D23F44053D4F8801026
:10313C000B435365236813F0100F0CD0D4F8943064
:10314C00B3F5807F6DD0314A936D23F44073D4F87E
:10315C0094100B439365236813F4002F0BD0D4F811
:10316C00A030B3F5803F75D0B3F5003F68D0002B8D
:10317C0060D001263546236813F4802F0CD0D4F888
:10318C008430B3F5001F7DD0B3F5401F70D0B3F57C
:10319C00801F68D001263546236813F4803F08D081
:1031AC00236D002B77D0B3F5803F00F08280012691
:1031BC003546236813F0005F40F08480236813F4D5
:1031CC00003F00F08C80E36FB3F5807F00F0DF8070
:1031DC0040F28280B3F5007F03D0B3F5407F40F01E
:1031EC00D480002D40F0D980084A536D23F44073ED
:1031FC00E16F0B43536572E0022104F12800FFF7E5
:10320C007BFB054662E72E4683E700BF004402586D
:10321C00022104F12800FFF76FFB002882D0012661
:10322C0080E7022104F12800FFF766FB00288AD012
:10323C00012688E7002104F10800FFF7D7FA0546BC
:10324C007DB9724A936D23F44033D4F8A0100B432C
:10325C00936590E7022104F12800FFF74DFB05462A
:10326C00EEE72E4687E7694AD36A43F40033D3620C
:10327C007DB9664A536D23F44013D4F884100B4384
:10328C00536589E7012104F12800FFF735FB05465A
:10329C00EEE72E4680E75D4AD36A43F40033D362EF
:1032AC0075B95A4AD36C23F48033216D0B43D36424
:1032BC007FE7022104F10800FFF798FA0546EFE7D3
:1032CC002E4676E7022104F12800FFF715FB0028B3
:1032DC003FF474AF012671E7002B82D001262368DE
:1032EC0013F4801F06D0494A136D23F00043216F5D
:1032FC000B431365236813F4001F06D0434A136D68
:10330C0023F08073A16E0B431365236813F0804F79
:10331C0009D03E4B1A6922F400421A611A69D4F89A
:10332C00B4100A431A612368002B06DA374AD36CAF
:10333C0023F04053616D0B43D364236813F4000FE7
:10334C0007D0324A536D23F44003D4F888100B4352
:10335C005365636813F0010F21D1636813F0020FFA
:10336C0026D1636813F0040F2BD1636813F0080F98
:10337C0030D1636813F0100F35D1636813F0200F50
:10338C003AD106B101263046F8BD0126A7E71F4AFF
:10339C00D36A43F40033D36223E72E469FE7002120
:1033AC0004F10800FFF722FA0028D6D00646D4E72D
:1033BC00012104F10800FFF719FA0028D1D00646C4
:1033CC00CFE7022104F10800FFF710FA0028CCD057
:1033DC000646CAE7002104F12800FFF78DFA002801
:1033EC00C7D00646C5E7012104F12800FFF784FA8F
:1033FC000028C2D00646C0E7022104F12800FFF7DE
:10340C007BFA0028BDD00646BBE700BF004402583B
:10341C0008B5FFF7A5F9054B1B6AC3F30213044A61
:10342C00D35C03F01F03D84008BD00BF0044025812
:10343C009C5400082DE9F0410446864B9D6A9E6A17
:10344C00C6F30536D86AC0F30010DB6BC3F3CC03AC
:10345C0003FB00F0FDF70AF8002E00F0F58005F0F4
:10346C0003050746012D79D0022D00F0CB800DB35A
:10347C003046FCF7FBFF01467748FDF703F905469C
:10348C00744B986BC0F30800FCF7F0FF06464FF046
:10349C0064513846FDF742F801463046FCF736FFDA
:1034AC004FF07E51FCF732FF01462846FDF736F807
:1034BC00054674E0674B1B6813F0200F2CD0DFF827
:1034CC009481D8F80030C3F3C1036448D840FCF7AA
:1034DC00CDFF05463046FCF7C9FF01462846FDF7EF
:1034EC00D1F80546D8F83800C0F30800FCF7BEFF49
:1034FC0006464FF064513846FDF710F80146304649
:10350C00FCF704FF4FF07E51FCF700FF0146284604
:10351C00FDF704F8054642E03046FCF7A7FF0146EC
:10352C004F48FDF7AFF805464A4B986BC0F30800BF
:10353C00FCF79CFF06464FF064513846FCF7EEFF53
:10354C0001463046FCF7E2FE4FF07E51FCF7DEFE02
:10355C0001462846FCF7E2FF054620E03046FCF722
:10356C0085FF01463C48FDF78DF80546394B986BB5
:10357C00C0F30800FCF77AFF06464FF0645138465A
:10358C00FCF7CCFF01463046FCF7C0FE4FF07E51F5
:10359C00FCF7BCFE01462846FCF7C0FF05462D4E45
:1035AC00B06BC0F34620FCF761FF4FF07E51FCF787
:1035BC00ADFE01462846FDF765F8FDF7FFF82060E3
:1035CC00B06BC0F30640FCF751FF4FF07E51FCF797
:1035DC009DFE01462846FDF755F8FDF7EFF86060B3
:1035EC00B06BC0F30660FCF741FF4FF07E51FCF767
:1035FC008DFE01462846FDF745F8FDF7DFF8A06083
:10360C00BDE8F0813046FCF731FF01461548FDF767
:10361C0039F805460F4B986BC0F30800FCF726FFF2
:10362C0006464FF064513846FCF778FF01463046A9
:10363C00FCF76CFE4FF07E51FCF768FE0146284605
:10364C00FCF76CFF0546AAE7002323606360A360C8
:10365C00D6E700BF004402580024744A0090D003FF
:10366C000024744C20BCBE4B2DE9F0410446864B23
:10367C009D6A9E6AC6F30556D86AC0F300205B6C3F
:10368C00C3F3CC0303FB00F0FCF7F0FE002E00F0BC
:10369C00F58005F003050746012D79D0022D00F0C9
:1036AC00CB800DB33046FCF7E1FE01467748FCF7C2
:1036BC00E9FF0546744B186CC0F30800FCF7D6FE06
:1036CC0006464FF064513846FCF728FF0146304659
:1036DC00FCF71CFE4FF07E51FCF718FE0146284605
:1036EC00FCF71CFF054674E0674B1B6813F0200FBA
:1036FC002CD0DFF89481D8F80030C3F3C1036448B0
:10370C00D840FCF7B3FE05463046FCF7AFFE014649
:10371C002846FCF7B7FF0546D8F84000C0F3080070
:10372C00FCF7A4FE06464FF064513846FCF7F6FE53
:10373C0001463046FCF7EAFD4FF07E51FCF7E6FD02
:10374C0001462846FCF7EAFE054642E03046FCF707
:10375C008DFE01464F48FCF795FF05464A4B186C09
:10376C00C0F30800FCF782FE06464FF06451384661
:10377C00FCF7D4FE01463046FCF7C8FD4FF07E51F5
:10378C00FCF7C4FD01462846FCF7C8FE054620E0C0
:10379C003046FCF76BFE01463C48FCF773FF0546D0
:1037AC00394B186CC0F30800FCF760FE06464FF06E
:1037BC0064513846FCF7B2FE01463046FCF7A6FDD4
:1037CC004FF07E51FCF7A2FD01462846FCF7A6FE01
:1037DC0005462D4E306CC0F34620FCF747FE4FF0EB
:1037EC007E51FCF793FD01462846FCF74BFFFCF796
:1037FC00E5FF2060306CC0F30640FCF737FE4FF05D
:10380C007E51FCF783FD01462846FCF73BFFFCF795
:10381C00D5FF6060306CC0F30660FCF727FE4FF0FC
:10382C007E51FCF773FD01462846FCF72BFFFCF795
:10383C00C5FFA060BDE8F0813046FCF717FE0146DD
:10384C001548FCF71FFF05460F4B186CC0F308001A
:10385C00FCF70CFE06464FF064513846FCF75EFE52
:10386C0001463046FCF752FD4FF07E51FCF74EFD01
:10387C0001462846FCF752FE0546AAE700232360C2
:10388C006360A360D6E700BF004402580024744A6A
:10389C000090D0030024744C20BCBE4B90F83D30FB
:1038AC00DBB2012B42D1022380F83D300268D36891
:1038BC0043F00103D36003681E4AB3F1804F18BF75
:1038CC00934225D0A2F57C42934221D002F580622E
:1038DC0093421DD002F58062934219D002F57842D2
:1038EC00934215D0A2F56C42934211D002F594325A
:1038FC0093420DD0A2F5C042934209D002F58062EA
:10390C00934205D01A6842F001021A6000207047F9
:10391C009968094A0A40062A18BFB2F5803F07D0B9
:10392C001A6842F001021A600020704701207047AB
:10393C0000207047000001400700010070477047ED
:10394C007047704710B5044603681A6912F0020FED
:10395C0011D0DA6812F0020F0DD06FF002021A616A
:10396C000123037703689B6913F0030F79D0FFF7EA
:10397C00E6FF0023237723681A6912F0040F12D094
:10398C00DA6812F0040F0ED06FF004021A610223F1
:10399C00237723689B6913F4407F68D02046FFF798
:1039AC00CEFF0023237723681A6912F0080F12D078
:1039BC00DA6812F0080F0ED06FF008021A610423B7
:1039CC0023772368DB6913F0030F57D02046FFF7EA
:1039DC00B6FF0023237723681A6912F0100F12D058
:1039EC00DA6812F0100F0ED06FF010021A61082373
:1039FC0023772368DB6913F4407F46D02046FFF71A
:103A0C009EFF0023237723681A6912F0010F03D05D
:103A1C00DA6812F0010F3FD123681A6912F0800F97
:103A2C0003D0DA6812F0800F3DD123681A6912F4C2
:103A3C00807F03D0DA6812F0800F3BD123681A69BB
:103A4C0012F0400F03D0DA6812F0400F39D123681E
:103A5C001A6912F0200F03D0DA6812F0200F37D158
:103A6C0010BDFFF76BFF2046FFF76AFF81E720468A
:103A7C00FFF764FF2046FFF763FF92E72046FFF74E
:103A8C005DFF2046FFF75CFFA3E72046FFF756FFDC
:103A9C002046FFF755FFB4E76FF001021A6120468C
:103AAC00FDF744F8B8E76FF080021A61204600F089
:103ABC0030F9BAE76FF480721A61204600F02AF9E7
:103ACC00BCE76FF040021A612046FFF73AFFBEE7F1
:103ADC006FF020021A61204600F01AF9C0E70000CE
:103AEC0030B503683E4A904214BF4FF0000E4FF0C1
:103AFC00010EB0F1804F14BF72464EF00102AAB90C
:103B0C00384CA04214BF00240124374DA8420DD0DC
:103B1C0064B904F1804404F58234A04214BF00243B
:103B2C00012405F50065A84200D01CB123F07003F8
:103B3C004C68234362BB2B4A904214BF00220122E3
:103B4C00294CA04224D01ABB02F1804202F58232E9
:103B5C00904214BF0022012204F50064A04217D049
:103B6C00B2B9224A904214BF0022012204F59A34C1
:103B7C00A0420DD062B91E4A904214BF002201220D
:103B8C0004F50064A04203D012B91A4A904204D141
:103B9C0023F4407CCB6843EA0C0323F080034A698E
:103BAC00134303608A68C2620A688262124A9042B6
:103BBC0014BF73464EF0010363B90C4B984214BF0B
:103BCC000023012302F57052904203D013B90B4B22
:103BDC00984201D10B6903630123436130BD00BFDF
:103BEC000000014000080040000400400044014077
:103BFC0000E0004000E400400004014000480140A7
:103C0C0060B310B5044690F83D3013B3022384F82A
:103C1C003D30214651F8040BFFF762FF012384F875
:103C2C00483084F83E3084F83F3084F8403084F8D3
:103C3C00413084F8423084F8433084F8443084F8BE
:103C4C00453084F8463084F8473084F83D30002005
:103C5C0010BD80F83C30FDF743F9D7E701207047E1
:103C6C0090F83C30012B4DD070B4012380F83C30DF
:103C7C00022380F83D3003685A689C68224E234D1D
:103C8C00AB4218BFB34203D122F470024D682A43F1
:103C9C0022F070020D682A435A6003681A4AB3F185
:103CAC00804F18BF93421FD0A2F57C4293421BD089
:103CBC0002F58062934217D002F58062934213D0D2
:103CCC0002F5784293420FD0A2F56C4293420BD08E
:103CDC0002F59432934207D0A2F5C042934203D02E
:103CEC0002F58062934204D124F080048A68144364
:103CFC009C60012380F83D30002380F83C3018464E
:103D0C0070BC704702207047000001400004014065
:103D1C007047704770470000026852E8003F23F478
:103D2C00907342E800310029F6D1026802F10803D1
:103D3C0053E8001F0D4B0B40083242E800310029BC
:103D4C00F3D1C36E012B06D02023C0F88C30002396
:103D5C00C36643677047026852E8003F23F01003C4
:103D6C0042E800310029F6D1EEE700BFFEFFFFEF7D
:103D7C00704708B5026852E8003F23F0400342E860
:103D8C0000310029F6D12023C0F888300023836746
:103D9C00FFF7EEFF08BD704708B5806B0023A0F855
:103DAC005E30A0F85630FFF7F6FF08BD70470000F4
:103DBC0070B504460168CB6908688D6840F60F023F
:103DCC001A4008D113F0200F05D010F0200F34D179
:103DDC0015F0805F31D12AB18B4A2A4033D18B4EFA
:103DEC00304230D1E26E012A00F0C68013F4801FFD
:103DFC0003D015F4800F40F09B8113F0800F07D097
:103E0C0010F0800F40F09B8115F4000F40F097816B
:103E1C0013F0400F03D010F0400F40F0978113F4D3
:103E2C00000F03D010F0804F40F0948113F0807F8E
:103E3C0002D00028C0F2928170BD636F002BFBD0C2
:103E4C0020469847F8E713F0010F09D010F4807F53
:103E5C0006D001260E62D4F890103143C4F89010AD
:103E6C0013F0020F0BD015F0010F08D021680226B9
:103E7C000E62D4F8901041F00401C4F8901013F0C5
:103E8C00040F0BD015F0010F08D0216804260E6228
:103E9C00D4F8901041F00201C4F8901013F0080F00
:103EAC000BD010F0200F00D13AB12268082111621A
:103EBC00D4F890200A43C4F8902013F4006F0CD06F
:103ECC0010F0806F09D022684FF400611162D4F8B1
:103EDC00902042F02002C4F89020D4F89020002AC0
:103EEC00AAD013F0200F09D010F0200F02D115F03A
:103EFC00805F03D0636F0BB120469847D4F89020B5
:103F0C0023689B6813F0400F02D112F0280F2CD0BD
:103F1C002046FFF701FF23689B6813F0400F20D069
:103F2C00226802F1080353E8003F23F040030832F3
:103F3C0042E800310029F3D1D4F880306BB1344A17
:103F4C001A65D4F88000FDF7A3FB00283FF474AF8A
:103F5C00D4F88000036D98476EE72046FFF71BFFEF
:103F6C006AE72046FFF717FF66E72046FFF713FFC7
:103F7C000023C4F890305FE713F0100F3FF436AF16
:103F8C0010F0100F3FF432AF10230B6223689B68C4
:103F9C0013F0400F00F09280D4F8802013681D4875
:103FAC001D498B4218BF834238D018318B4235D013
:103FBC0018318B4232D018318B422FD018318B42B2
:103FCC002CD018318B4229D018318B4226D001F5D8
:103FDC0056718B4222D018318B421FD018318B4234
:103FEC001CD018318B4219D018318B4216D0183195
:103FFC008B4213D018318B4210D018318B420DD01C
:10400C005B689BB20CE000BF0100001020010004B3
:10401C00A53D000810000240280002405B689BB2DE
:10402C00002B3FF409AFB4F85C1099427FF604AF53
:10403C00A4F85E30D369B3F5807F32D0226852E8A1
:10404C00003F23F4807342E800310029F6D1226846
:10405C0002F1080353E8003F23F00103083242E861
:10406C0000310029F3D1226802F1080353E8003F24
:10407C0023F04003083242E800310029F3D1202319
:10408C00C4F88C300023E366226852E8003F23F02A
:10409C00100342E800310029F6D1D4F88000FDF776
:1040AC0057F902232367B4F85C10B4F85E309BB266
:1040BC00C91A89B22046FFF779FEBDE6B4F85C1048
:1040CC00B4F85E309BB2C91A89B2B4F85E309BB2B8
:1040DC00002B3FF4B1AE00293FF4AEAE226852E89B
:1040EC00003F23F4907342E800300028F6D1226898
:1040FC0002F1080353E8000F1A4B0340083242E860
:10410C0000300028F3D12023C4F88C300023E36660
:10411C006367226852E8003F23F0100342E8003046
:10412C000028F6D1022323672046FFF73FFE83E6E3
:10413C004FF480130B62204601F04CF87CE6A36F21
:10414C00002B3FF479AE2046984775E62046FFF7E2
:10415C0010FE71E6204601F03FF86DE6204601F0B6
:10416C003AF869E6FEFFFFEF08B5B0F86030D0F81A
:10417C008C20222A05D00268936943F008039361CE
:10418C0008BD0268516ADBB2826D0B401370836DFF
:10419C0001338365B0F85E309BB2013B9BB2A0F853
:1041AC005E30B0F85E309BB2002BE9D1026852E869
:1041BC00003F23F4907342E800310029F6D10268E5
:1041CC0002F1080353E8003F23F00103083242E8F0
:1041DC0000310029F3D12023C0F88C300023436731
:1041EC0003670368164A93420CD05B6813F4000F04
:1041FC0008D0026852E8003F23F0806342E80031A7
:10420C000029F6D1C36E012B16D10023C3660268B8
:10421C0052E8003F23F0100342E800310029F6D1A8
:10422C000368DA6912F0100F01D010221A62B0F88C
:10423C005C10FFF7BBFDA3E7FCF786FCA0E700BF13
:10424C00000C005808B5B0F86020D0F88C30222B48
:10425C0005D00268936943F00803936108BD0368B5
:10426C005B6A816D13400B80836D02338365B0F8FC
:10427C005E309BB2013B9BB2A0F85E30B0F85E3072
:10428C009BB2002BEAD1026852E8003F23F49073F2
:10429C0042E800310029F6D1026802F1080353E824
:1042AC00003F23F00103083242E800310029F3D12A
:1042BC002023C0F88C300023436703670368164A39
:1042CC0093420CD05B6813F4000F08D0026852E8DC
:1042DC00003F23F0806342E800310029F6D1C36E21
:1042EC00012B16D10023C366026852E8003F23F06D
:1042FC00100342E800310029F6D10368DA6912F0A4
:10430C00100F01D010221A62B0F85C10FFF74EFDAE
:10431C00A4E7FCF719FCA1E7000C00582DE9F843C1
:10432C00B0F860600368DD69D3F80090D3F80880BA
:10433C00D0F88C20222A05D09A6942F008029A61A2
:10434C00BDE8F8830446B0F8687008E0D4F8903003
:10435C00002B4CD1B4F85E309BB2002B4ED0002F0A
:10436C0000F0988015F0200F00F094802368596AB3
:10437C00F3B2A26D0B401370A36D0133A365B4F8B7
:10438C005E309BB2013B9BB2A4F85E302368DD69C2
:10439C0015F0070FDED015F0010F09D019F4807F4E
:1043AC0006D001221A62D4F890301343C4F890302E
:1043BC0015F0020F0BD018F0010F08D02368022261
:1043CC001A62D4F8903043F00403C4F8903015F01E
:1043DC00040FBBD018F0010FB8D0236804221A6266
:1043EC00D4F8903043F00203C4F89030AEE7204686
:1043FC00FFF7D1FC0023C4F89030ABE7226852E8F9
:10440C00003F23F4807342E800310029F6D1226882
:10441C0002F1080353E8001F304B0B40083242E80E
:10442C0000310029F3D12023C4F88C3000236367BA
:10443C00236723682A4A934203D05B6813F4000F66
:10444C0006D1E36E012B0DD02046FCF77DFB86E7F1
:10445C00226852E8003F23F0806342E800310029D3
:10446C00F6D1EEE70023E366226852E8003F23F022
:10447C00100342E800310029F6D12368DA6912F002
:10448C00100F01D010221A62B4F85C102046FFF70E
:10449C008DFC64E7B4F85E309BB2002B3FF450AF58
:1044AC00B4F868209A427FF64BAF226802F10803F9
:1044BC0053E8003F23F08053083242E800310029D2
:1044CC00F3D1084B6367226852E8003F43F02003A6
:1044DC0042E800310029F6D132E700BFFEFFFFEFC2
:1044EC00000C0058754100082DE9F843B0F86060E5
:1044FC000368DD69D3F80090D3F80880D0F88C20DD
:10450C00222A05D09A6942F008029A61BDE8F88324
:10451C000446B0F8687008E0D4F89030002B4BD10A
:10452C00B4F85E309BB2002B4DD0002F00F097807A
:10453C0015F0200F00F0938023685B6AA26D334066
:10454C001380A36D0233A365B4F85E309BB2013BBC
:10455C009BB2A4F85E302368DD6915F0070FDFD03D
:10456C0015F0010F09D019F4807F06D001221A62D0
:10457C00D4F890301343C4F8903015F0020F0BD0E0
:10458C0018F0010F08D0236802221A62D4F8903078
:10459C0043F00403C4F8903015F0040FBCD018F0AD
:1045AC00010FB9D0236804221A62D4F8903043F07A
:1045BC000203C4F89030AFE72046FFF7ECFB002372
:1045CC00C4F89030ACE7226852E8003F23F48073C3
:1045DC0042E800310029F6D1226802F1080353E8C1
:1045EC00001F304B0B40083242E800310029F3D158
:1045FC002023C4F88C3000236367236723682A4A7E
:10460C00934203D05B6813F4000F06D1E36E012BC9
:10461C000DD02046FCF798FA87E7226852E8003F55
:10462C0023F0806342E800310029F6D1EEE7002345
:10463C00E366226852E8003F23F0100342E80031A1
:10464C000029F6D12368DA6912F0100F01D010227C
:10465C001A62B4F85C102046FFF7A8FB65E7B4F8C3
:10466C005E309BB2002B3FF451AFB4F868209A42F5
:10467C007FF64CAF226802F1080353E8003F23F0A9
:10468C008053083242E800310029F3D1074B6367AD
:10469C00226852E8003F43F0200342E80031002931
:1046AC00F6D133E7FEFFFFEF000C00585142000833
:1046BC0070B586B004460168836802691343426989
:1046CC001343C26913430868904A024013430B60BA
:1046DC002268536823F44053E1680B435360A1698B
:1046EC0022688B4B9A4201D0236A19439068894BFC
:1046FC0003400B4393602268D36A23F00F03616A73
:10470C000B43D3622268844B9A4229D0834B9A4242
:10471C0000F09480824B9A4200F0AA80814B9A421E
:10472C0000F0C080804B9A4200F0D6807F4B9A42BA
:10473C0000F008817E4B9A4200F02D817D4B9A420D
:10474C0000F040817C4B9A4200F053817B4B9A42A3
:10475C0000F078816E4B9A4200F09D81802333E00B
:10476C00774B5B6D03F03803282B65D8DFE813F02B
:10477C002900640064006400640064006400640048
:10478C00AB016400640064006400640064006400B5
:10479C002B00640064006400640064006400640026
:1047AC005E006400640064006400640064006400E3
:1047BC0060006400640064006400640064006400D1
:1047CC006200012300E0082351498A4200F09481E1
:1047DC00E069B0F5004F00F00A82202B00F26282F3
:1047EC00202B00F2AC82DFE813F079027F02AA02E0
:1047FC00AA028202AA02AA02AA028702AA02AA0298
:10480C00AA02AA02AA02AA02AA028C02AA02AA025A
:10481C00AA02AA02AA02AA02AA02AA02AA02AA022C
:10482C00AA02AA02AA02AA02AA0298021023CBE7A1
:10483C002023C9E74023C7E78023C5E7404B5B6DC6
:10484C0003F00703052B11D8DFE813F006003F0136
:10485C0008000A000C000E000023B5E70823B3E79C
:10486C001023B1E72023AFE74023ADE78023ABE76C
:10487C00334B5B6D03F00703052B11D8DFE813F006
:10488C000600270108000A000C000E0000239BE71D
:10489C00082399E7102397E7202395E7402393E714
:1048AC00802391E7264B5B6D03F00703052B11D892
:1048BC00DFE813F006000F0108000A000C000E00E0
:1048CC00002381E708237FE710237DE720237BE784
:1048DC00402379E7802377E7194B5B6D03F00703DF
:1048EC00052B11D8DFE813F00600F70008000A00CA
:1048FC000C000E00002367E7082365E7102363E72D
:10490C00202361E740235FE780235DE7F369FFCF56
:10491C00000C0058FFF4FF1100100140004400404F
:10492C0000480040004C0040005000400014014082
:10493C0000780040007C004000180140001C014041
:10494C0000440258694B5B6D03F03803282B20D8C8
:10495C00DFE803F0151F1F1F1F1F1F1FC31F1F1F83
:10496C001F1F1F1F171F1F1F1F1F1F1F191F1F1F59
:10497C001F1F1F1F1B1F1F1F1F1F1F1F1D0001237A
:10498C0022E7082320E710231EE720231CE74023FF
:10499C001AE7802318E7554B5B6D03F00703052BD3
:1049AC000ED8DFE803F0039C0507090B00230BE787
:1049BC00082309E7102307E7202305E7402303E733
:1049CC00802301E7494B5B6D03F00703052B0ED8E1
:1049DC00DFE803F003870507090B0023F4E608233F
:1049EC00F2E61023F0E62023EEE64023ECE68023EB
:1049FC00EAE63E4B5B6D03F03803282B20D8DFE84A
:104A0C0003F0151F1F1F1F1F1F1F721F1F1F1F1FAC
:104A1C001F1F171F1F1F1F1F1F1F191F1F1F1F1FA8
:104A2C001F1F1B1F1F1F1F1F1F1F1D000123CBE656
:104A3C000823C9E61023C7E62023C5E64023C3E6B6
:104A4C008023C1E6294B5B6D03F03803282B20D85B
:104A5C00DFE803F0151F1F1F1F1F1F1F4E1F1F1FF7
:104A6C001F1F1F1F171F1F1F1F1F1F1F191F1F1F58
:104A7C001F1F1F1F1B1F1F1F1F1F1F1F1D00012379
:104A8C00A2E60823A0E610239EE620239CE6402302
:104A9C009AE6802398E603F50E339B6D03F007032B
:104AAC00052B0ED8DFE803F003260507090B0223BC
:104ABC008AE6082388E6102386E6202384E6402332
:104ACC0082E6802380E604237EE604237CE604232E
:104ADC007AE6042378E6042376E6042374E60423BA
:104AEC0072E6042370E604236EE600BF004402580D
:104AFC00042369E6042367E6202B27D8022BC0F099
:104B0C001081023B1E2B00F20E81DFE813F05000E7
:104B1C000C0156000C010C010C015B000C010C018A
:104B2C000C010C010C010C010C0160000C010C01BE
:104B3C000C010C010C010C010C010C010C010C0101
:104B4C000C010C010C010C010C016C00402B2CD144
:104B5C004FF40040626A804B33F81220B0FBF2F342
:104B6C00656805EB4501994200F2DF80B3EB053F28
:104B7C0000F2DD80002633463146FBF73FFE09028A
:104B8C0041EA106100026B08C0182A46334641F115
:104B9C000001FBF733FEA0F54072704B9A4200F215
:104BAC00C8802368D8603046CAE00120C8E0FEF710
:104BBC002FFC0028CED10020C2E003A8FEF73AFC5F
:104BCC000498F6E76846FEF74FFD0198F1E7644B51
:104BDC001B6813F0200F08D0614B1B68C3F3C10393
:104BEC006048D840E5E76048B4E75E48B2E7202B60
:104BFC0015D8202B00F29F80DFE803F031379D9D04
:104C0C003A9D9D9D3F9D9D9D9D9D9D9D449D9D9DE2
:104C1C009D9D9D9D9D9D9D9D9D9D9D9D5000402B71
:104C2C001BD1626A4C4B33F81230B0FBF3F0626864
:104C3C00530803EB4000B0FBF2F0A0F110024FF66A
:104C4C00EF739A4279D883B223F00F03C0F342007A
:104C5C0018432368D860002072E0012070E0FDF753
:104C6C00A1FD0028DDD100206AE0FDF7ADFDF8E7DD
:104C7C0003A8FEF7DFFB0498F3E76846FEF7F4FCA5
:104C8C000198EEE7364B1B6813F0200F08D0344B1D
:104C9C001B68C3F3C1033348D840E2E73248C0E78E
:104CAC003048BEE7402B17D14FF40040626A2A4BC4
:104CBC0033F81230B0FBF3F0636800EB5300B0FB39
:104CCC00F3F0A0F110024FF6EF739A4242D823682A
:104CDC0080B2D860002033E0012031E0FDF762FDA6
:104CEC000028E3D100202BE0FDF76EFDF8E703A8C8
:104CFC00FEF7A0FB0498F3E76846FEF7B5FC0198B5
:104D0C00EEE7174B1B6813F0200F08D0144B1B68F1
:104D1C00C3F3C1031348D840E2E71348C6E7114870
:104D2C00C4E701200CE001200AE0012008E001208A
:104D3C0006E0012004E0012002E0012000E0012057
:104D4C000123A4F86A30A4F8683000236367A367D2
:104D5C0006B070BD0120F3E7AC540008FFFC0F0057
:104D6C00004402580090D00300093D00836A13F000
:104D7C00010F06D00268536823F40033C16A0B4359
:104D8C005360836A13F0020F06D00268536823F451
:104D9C008033016B0B435360836A13F0040F06D00E
:104DAC000268536823F48023416B0B435360836A7E
:104DBC0013F0080F06D00268536823F40043816B8C
:104DCC000B435360836A13F0100F06D0026893688C
:104DDC0023F48053C16B0B439360836A13F0200F51
:104DEC0006D00268936823F40053016C0B43936064
:104DFC00836A13F0400F0AD00268536823F48013BF
:104E0C00416C0B435360436CB3F5801F0BD0836A2A
:104E1C0013F0800F06D00268536823F40023C16C92
:104E2C000B43536070470268536823F4C003816CD2
:104E3C000B435360EBE72DE9F84305460F46164646
:104E4C009946DDF820802C68E46937EA04030CBF2E
:104E5C004FF0010C4FF0000CB44532D1B8F1FF3FCC
:104E6C00F1D0FCF775F9A0EB090040452CD8B8F14E
:104E7C00000F2BD02B681A6812F0040FE3D0DA69FC
:104E8C0012F0080F11D1DA6912F4006FDBD04FF475
:104E9C0000621A622846FEF73FFF2023C5F89030C7
:104EAC00002385F8843003200CE008241C6228467B
:104EBC00FEF732FFC5F89040002385F884300120BE
:104ECC0000E00020BDE8F8830320FBE70320F9E7AE
:104EDC0030B583B004460023C0F89030FCF738F9A5
:104EEC0005462268126812F0080F10D123681B685F
:104EFC0013F0040F28D12023C4F88830C4F88C3068
:104F0C000020E066206784F8840003B030BD6FF0A9
:104F1C007E430093034600224FF400112046FFF716
:104F2C008AFF0028E2D0226852E8003F23F0800379
:104F3C0042E800310029F6D12023C4F88830002340
:104F4C0084F884300320E0E76FF07E4300932B4617
:104F5C0000224FF480012046FFF76DFF0028CAD0D5
:104F6C00226852E8003F23F4907342E80031002994
:104F7C00F6D1226802F1080353E8003F23F0010345
:104F8C00083242E800310029F3D12023C4F88C30D8
:104F9C00002384F884300320B7E778B310B50446B7
:104FAC00D0F888300BB32423C4F8883022681368F7
:104FBC0023F0010313602046FFF77AFB012813D07E
:104FCC00A36ABBB92268536823F4904353602268E8
:104FDC00936823F02A0393602268136843F001035B
:104FEC0013602046FFF774FF10BD80F88430FBF788
:104FFC00CFFFD8E72046FFF7B9FEE3E70120704763
:10500C0010B48165A0F85C20A0F85E2000234367F3
:10501C008368B3F5805F06D0A3B9036973B9FF2326
:10502C00A0F8603014E0036923B940F2FF13A0F834
:10503C0060300DE0FF23A0F8603009E07F23A0F87A
:10504C00603005E0B3F1805F2DD00023A0F8603014
:10505C000023C0F890302223C0F88C30016801F195
:10506C00080353E8003F43F00103083141E80034E2
:10507C00002CF3D1436EB3F1005F1ED08368B3F5FF
:10508C00805F42D0294B43670369002B43D00268F1
:10509C0052E8003F43F4907342E800310029F6D106
:1050AC00002010BC704703691BB97F23A0F8603047
:1050BC00CEE73F23A0F86030CAE7B0F868309342DF
:1050CC00DCD88368B3F5805F19D0194B436703694B
:1050DC0043B1026852E8003F43F4807342E8003168
:1050EC000029F6D1026802F1080353E8003F43F0AF
:1050FC008053083242E800310029F3D1D0E703692C
:10510C00002BE2D10B4B4367E1E70369002BB9D1CC
:10511C00094B4367B8E7026852E8003F43F02003AD
:10512C0042E800310029F6D1BAE700BF754100080A
:10513C0029430008F54400085142000838B5D0F85E
:10514C008C30202B19D1002A18BF002917D000232E
:10515C00C36603680B4CA3420CD05B6813F4000FBE
:10516C0008D0046854E8003F43F0806344E80035FD
:10517C00002DF6D1FFF744FF00E0022038BD0120DE
:10518C00FCE700BF000C0058436E2BB90123A0F8BC
:10519C006A30A0F86830704730B403689A68C2F37C
:1051AC0042629968490F094D6B5C1B01084C615CAC
:1051BC0093FBF1F3A0F86A30AB5C1B01A25C93FB90
:1051CC00F2F3A0F8683030BC704700BFCC54000834
:1051DC00C454000870477047704790F88430012B16
:1051EC0018D0012380F884302423C0F88830036859
:1051FC001A68196821F00101196022F0005200238D
:10520C00436601680A602022C0F8882080F8843048
:10521C00184670470220704738B590F88430012B3F
:10522C001DD00446012380F884302423C0F8883034
:10523C0003681D681A6822F001021A6002689368FC
:10524C0023F0604319439160FFF79EFF23681D60B4
:10525C002023C4F88830002084F8840038BD022054
:10526C00FCE738B590F88430012B1DD0044601239F
:10527C0080F884302423C0F8883003681D681A68CD
:10528C0022F001021A600268936823F060631943EC
:10529C009160FFF779FF23681D602023C4F88830E4
:1052AC00002084F8840038BD0220FCE770B50D4E58
:1052BC000D4D761BB61006D0002455F8043B013476
:1052CC009847A642F9D1094E094D761B00F0D4F847
:1052DC00B61006D0002455F8043B01349847A6427A
:1052EC00F9D170BDE0540008E0540008E8540008FF
:1052FC00E0540008830730B548D0541E002A3FD034
:10530C00CAB2034601E0013C3AD303F8012B9D07D6
:10531C00F9D1032C2DD9CDB245EA05250F2C45EA40
:10532C00054536D9A4F1100222F00F0C03F1200E22
:10533C00E6444FEA121C03F1100242E9045542E91B
:10534C00025510327245F8D10CF1010214F00C0F19
:10535C0003EB021204F00F0C13D0ACF1040323F096
:10536C0003030433134442F8045B9342FBD10CF067
:10537C0003042CB1CAB21C4403F8012B9C42FBD190
:10538C0030BD64461346002CF4D1F9E703461446AD
:10539C00BFE71A46A446E0E7024B13B1024800F0FF
:1053AC0005B8704700000000C553000800230146F3
:1053BC001A46184600F01AB838B5084B084D5B1B56
:1053CC009C1007D0043B1D44013C55F80439984708
:1053DC00002CF9D1BDE8384000F054B8EC5400086A
:1053EC00E8540008704700BF704700BF2DE9F04734
:1053FC00DFF87CA00646DAF8000098460F46914686
:10540C00FFF7F0FF1B4B1B68D3F8484124B36568CA
:10541C001F2D26DC5EB96B1C0235DAF800006360C8
:10542C0044F82570FFF7E0FF0020BDE8F08704EB9F
:10543C0085010123C1F88890D4F88821AB401A4328
:10544C00022EC4F88821C1F80881E4D1D4F88C214B
:10545C001343C4F88C31DEE703F5A674C3F8484156
:10546C00D5E7DAF80000FFF7BFFF4FF0FF30DCE7BD
:10547C0038040024D4540008F8B500BFF8BC08BCAC
:10548C009E467047F8B500BFF8BC08BC9E467047F6
:10549C0000000000010203040102030406070809CE
:1054AC00010002000400060008000A000C001000B5
:1054BC0020004000800000010804020408010101E2
:0C54CC0001010103070100001000002492
:0854D80060B3FF7F010000003A
:0854E000A5530008F1020008C9
:0454E800CD020008E9
:1054EC000090D0030090D0030100000010000000D9
:1054FC0000000000FC02002464030024CC03002400
:10550C00000000000000000000000000000000008F
:10551C00000000000000000000000000000000007F
:10552C00000000000000000000000000000000006F
:10553C00000000000000000000000000000000005F
:10554C00000000000000000000000000000000004F
:10555C00000000000000000000000000000000003F
:10556C00000000000000000000000000000000002F
:10557C00000000000000000000000000000000001F
:10558C00000000000000000000000000000000000F
:10559C0000000000000000000100000000000000FE
:1055AC000E33CDAB34126DE6ECDE05000B000000C3
:1055BC0000000000000000000000000000000000DF
:1055CC0000000000000000000000000000000000CF
:1055DC0000000000000000000000000000000000BF
:1055EC0000000000000000000000000000000000AF
:0C591C0000000000000000008C050024CA
:04000005080010459A
:00000001FF
